{"contracts/SwapManager.sol":{"SwapManager":{"abi":[{"inputs":[{"internalType":"address","name":"weth","type":"address"}],"stateMutability":"nonpayable","type":"constructor"},{"anonymous":false,"inputs":[{"indexed":true,"internalType":"bytes32","name":"orderId","type":"bytes32"},{"indexed":true,"internalType":"address","name":"initiator","type":"address"},{"indexed":false,"internalType":"address","name":"tokenIn","type":"address"},{"indexed":false,"internalType":"address","name":"tokenOut","type":"address"},{"indexed":false,"internalType":"uint256","name":"amountIn","type":"uint256"},{"indexed":false,"internalType":"uint256","name":"amountOutMin","type":"uint256"},{"indexed":false,"internalType":"bytes32","name":"secretHash","type":"bytes32"}],"name":"OrderCreated","type":"event"},{"anonymous":false,"inputs":[{"indexed":true,"internalType":"bytes32","name":"orderId","type":"bytes32"},{"indexed":true,"internalType":"address","name":"resolver","type":"address"},{"indexed":false,"internalType":"bytes32","name":"secret","type":"bytes32"}],"name":"OrderFulfilled","type":"event"},{"anonymous":false,"inputs":[{"indexed":true,"internalType":"bytes32","name":"orderId","type":"bytes32"}],"name":"OrderRefunded","type":"event"},{"inputs":[],"name":"WETH","outputs":[{"internalType":"address","name":"","type":"address"}],"stateMutability":"view","type":"function"},{"inputs":[{"internalType":"address","name":"tokenIn","type":"address"},{"internalType":"address","name":"tokenOut","type":"address"},{"internalType":"uint256","name":"amountIn","type":"uint256"},{"internalType":"uint256","name":"amountOutMin","type":"uint256"},{"internalType":"uint256","name":"deadline","type":"uint256"},{"internalType":"bytes32","name":"secretHash","type":"bytes32"}],"name":"createOrder","outputs":[{"internalType":"bytes32","name":"","type":"bytes32"}],"stateMutability":"payable","type":"function"},{"inputs":[{"internalType":"bytes32","name":"orderId","type":"bytes32"},{"internalType":"uint256","name":"amountOut","type":"uint256"},{"internalType":"bytes32","name":"secret","type":"bytes32"}],"name":"fulfillOrder","outputs":[],"stateMutability":"payable","type":"function"},{"inputs":[{"internalType":"bytes32","name":"orderId","type":"bytes32"}],"name":"getOrder","outputs":[{"components":[{"internalType":"address","name":"initiator","type":"address"},{"internalType":"address","name":"resolver","type":"address"},{"internalType":"uint256","name":"amountIn","type":"uint256"},{"internalType":"uint256","name":"amountOutMin","type":"uint256"},{"internalType":"address","name":"tokenIn","type":"address"},{"internalType":"address","name":"tokenOut","type":"address"},{"internalType":"uint256","name":"deadline","type":"uint256"},{"internalType":"bytes32","name":"secretHash","type":"bytes32"},{"internalType":"bool","name":"isFulfilled","type":"bool"},{"internalType":"bool","name":"isRefunded","type":"bool"}],"internalType":"struct ISwapManager.SwapOrder","name":"","type":"tuple"}],"stateMutability":"view","type":"function"},{"inputs":[{"internalType":"address","name":"","type":"address"}],"name":"isWorkerWallet","outputs":[{"internalType":"bool","name":"","type":"bool"}],"stateMutability":"view","type":"function"},{"inputs":[{"internalType":"bytes32","name":"","type":"bytes32"}],"name":"orders","outputs":[{"internalType":"address","name":"initiator","type":"address"},{"internalType":"address","name":"resolver","type":"address"},{"internalType":"uint256","name":"amountIn","type":"uint256"},{"internalType":"uint256","name":"amountOutMin","type":"uint256"},{"internalType":"address","name":"tokenIn","type":"address"},{"internalType":"address","name":"tokenOut","type":"address"},{"internalType":"uint256","name":"deadline","type":"uint256"},{"internalType":"bytes32","name":"secretHash","type":"bytes32"},{"internalType":"bool","name":"isFulfilled","type":"bool"},{"internalType":"bool","name":"isRefunded","type":"bool"}],"stateMutability":"view","type":"function"},{"inputs":[{"internalType":"bytes32","name":"orderId","type":"bytes32"}],"name":"refundOrder","outputs":[],"stateMutability":"nonpayable","type":"function"},{"inputs":[{"internalType":"address","name":"workerWallet","type":"address"}],"name":"registerWorkerWallet","outputs":[],"stateMutability":"nonpayable","type":"function"},{"inputs":[{"internalType":"bytes32","name":"","type":"bytes32"}],"name":"usedSecrets","outputs":[{"internalType":"bool","name":"","type":"bool"}],"stateMutability":"view","type":"function"},{"stateMutability":"payable","type":"receive"}],"devdoc":{"kind":"dev","methods":{"registerWorkerWallet(address)":{"params":{"workerWallet":"The address of the worker wallet to register"}}},"version":1},"evm":{"bytecode":{"linkReferences":{},"object":"60a060405234801561001057600080fd5b5060405161172c38038061172c83398101604081905261002f91610045565b60016000556001600160a01b0316608052610075565b60006020828403121561005757600080fd5b81516001600160a01b038116811461006e57600080fd5b9392505050565b60805161169c610090600039600061037e015261169c6000f3fe60806040526004361061008a5760003560e01c80637535f2df116100595780637535f2df146102375780639c3f1e9014610258578063a4516c481461033c578063ad5c46481461036c578063f6dccf2e146103b857600080fd5b8063116a1d9a146100965780631f6d2eac146100b85780635778472a146100fd5780636808d5871461021757600080fd5b3661009157005b600080fd5b3480156100a257600080fd5b506100b66100b1366004611404565b6103cb565b005b3480156100c457600080fd5b506100e86100d3366004611432565b60036020526000908152604090205460ff1681565b60405190151581526020015b60405180910390f35b34801561010957600080fd5b5061020a610118366004611404565b6040805161014081018252600080825260208201819052918101829052606081018290526080810182905260a0810182905260c0810182905260e0810182905261010081018290526101208101919091525060009081526001602081815260409283902083516101408101855281546001600160a01b0390811682529382015484169281019290925260028101549382019390935260038301546060820152600483015482166080820152600583015490911660a0820152600682015460c0820152600782015460e082015260089091015460ff80821615156101008085019190915290910416151561012082015290565b6040516100f49190611456565b34801561022357600080fd5b506100b6610232366004611432565b610627565b61024a610245366004611508565b6106b4565b6040519081526020016100f4565b34801561026457600080fd5b506102db610273366004611404565b60016020819052600091825260409091208054918101546002820154600383015460048401546005850154600686015460078701546008909701546001600160a01b039889169896871697959694959385169490921692909160ff808216916101009004168a565b604080516001600160a01b039b8c168152998b1660208b015289019790975260608801959095529287166080870152951660a085015260c084019490945260e0830193909352911515610100820152901515610120820152610140016100f4565b34801561034857600080fd5b506100e8610357366004611404565b60026020526000908152604090205460ff1681565b34801561037857600080fd5b506103a07f000000000000000000000000000000000000000000000000000000000000000081565b6040516001600160a01b0390911681526020016100f4565b6100b66103c6366004611561565b610ad8565b6103d36110a5565b600081815260016020526040902080546001600160a01b031661042f5760405162461bcd60e51b815260206004820152600f60248201526e13dc99195c881b9bdd08199bdd5b99608a1b60448201526064015b60405180910390fd5b600881015460ff161561047e5760405162461bcd60e51b815260206004820152601760248201527613dc99195c88185b1c9958591e48199d5b199a5b1b1959604a1b6044820152606401610426565b6008810154610100900460ff16156104cb5760405162461bcd60e51b815260206004820152601060248201526f105b1c9958591e481c99599d5b99195960821b6044820152606401610426565b806006015442116105155760405162461bcd60e51b8152602060048201526014602482015273111958591b1a5b99481b9bdd081c995858da195960621b6044820152606401610426565b80546001600160a01b031633146105645760405162461bcd60e51b81526020600482015260136024820152722737ba1037b93232b91034b734ba34b0ba37b960691b6044820152606401610426565b60088101805461ff00191661010017905560048101546001600160a01b03166105ca57805460028201546040516001600160a01b039092169181156108fc0291906000818181858888f193505050501580156105c4573d6000803e3d6000fd5b506105ee565b8054600282015460048301546105ee926001600160a01b03918216929116906110fe565b60405182907fa60671d8537ed193e567f86ddf28cf35dc67073b5ad80a2d41359cfa78db0a1e90600090a2506106246001600055565b50565b6001600160a01b03811660009081526003602052604090205460ff16156106905760405162461bcd60e51b815260206004820152601f60248201527f576f726b657257616c6c657420616c72656164792072656769737465726564006044820152606401610426565b6001600160a01b03166000908152600360205260409020805460ff19166001179055565b60006106be6110a5565b600085116106fc5760405162461bcd60e51b815260206004820152600b60248201526a16995c9bc8185b5bdd5b9d60aa1b6044820152606401610426565b42831161073e5760405162461bcd60e51b815260206004820152601060248201526f496e76616c696420646561646c696e6560801b6044820152606401610426565b816107815760405162461bcd60e51b8152602060048201526013602482015272092dcecc2d8d2c840e6cac6e4cae840d0c2e6d606b1b6044820152606401610426565b6040516bffffffffffffffffffffffff1933606090811b821660208401524260348401526054830188905289811b8216607484015288901b166088820152609c810183905260009060bc0160408051601f198184030181529181528151602092830120600081815260019093529120549091506001600160a01b0316156108395760405162461bcd60e51b815260206004820152600c60248201526b4f726465722065786973747360a01b6044820152606401610426565b6001600160a01b0388166108925785341461088d5760405162461bcd60e51b8152602060048201526014602482015273125b98dbdc9c9958dd0811551208185b5bdd5b9d60621b6044820152606401610426565b6108a7565b6108a76001600160a01b038916333089611161565b604051806101400160405280336001600160a01b0316815260200160006001600160a01b03168152602001878152602001868152602001896001600160a01b03168152602001886001600160a01b03168152602001858152602001848152602001600015158152602001600015158152506001600083815260200190815260200160002060008201518160000160006101000a8154816001600160a01b0302191690836001600160a01b0316021790555060208201518160010160006101000a8154816001600160a01b0302191690836001600160a01b03160217905550604082015181600201556060820151816003015560808201518160040160006101000a8154816001600160a01b0302191690836001600160a01b0316021790555060a08201518160050160006101000a8154816001600160a01b0302191690836001600160a01b0316021790555060c0820151816006015560e082015181600701556101008201518160080160006101000a81548160ff0219169083151502179055506101208201518160080160016101000a81548160ff021916908315150217905550905050336001600160a01b0316817f958da44420b864737ad53ea0aa959279a3e21574047c9737df230d1f350577a08a8a8a8a89604051610aba9594939291906001600160a01b03958616815293909416602084015260408301919091526060820152608081019190915260a00190565b60405180910390a39050610ace6001600055565b9695505050505050565b610ae06110a5565b600083815260016020526040902080546001600160a01b0316610b375760405162461bcd60e51b815260206004820152600f60248201526e13dc99195c881b9bdd08199bdd5b99608a1b6044820152606401610426565b600881015460ff1615610b865760405162461bcd60e51b815260206004820152601760248201527613dc99195c88185b1c9958591e48199d5b199a5b1b1959604a1b6044820152606401610426565b6008810154610100900460ff1615610bd55760405162461bcd60e51b815260206004820152601260248201527113dc99195c881dd85cc81c99599d5b99195960721b6044820152606401610426565b8060060154421115610c195760405162461bcd60e51b815260206004820152600d60248201526c13dc99195c88195e1c1a5c9959609a1b6044820152606401610426565b60078101546040805160208101859052016040516020818303038152906040528051906020012014610c7e5760405162461bcd60e51b815260206004820152600e60248201526d125b9d985b1a59081cd958dc995d60921b6044820152606401610426565b60008281526002602052604090205460ff1615610cd35760405162461bcd60e51b815260206004820152601360248201527214d958dc995d08185b1c9958591e481d5cd959606a1b6044820152606401610426565b8060030154831015610d275760405162461bcd60e51b815260206004820152601a60248201527f496e73756666696369656e74206f757470757420616d6f756e740000000000006044820152606401610426565b3360009081526003602052604090205460ff1615610e08576000339050326001600160a01b0316816001600160a01b0316638da5cb5b6040518163ffffffff1660e01b8152600401602060405180830381865afa158015610d8c573d6000803e3d6000fd5b505050506040513d601f19601f82011682018060405250810190610db0919061158d565b6001600160a01b031614610e065760405162461bcd60e51b815260206004820152601760248201527f4e6f7420776f726b65722077616c6c6574206f776e65720000000000000000006044820152606401610426565b505b60088101805460ff19908116600190811790925582820180546001600160a01b0319163317905560008481526002602052604090208054909116909117905560048101546001600160a01b0316610f44578060020154471015610ead5760405162461bcd60e51b815260206004820152601860248201527f496e73756666696369656e74204554482062616c616e636500000000000000006044820152606401610426565b600281015460405160009133918381818185875af1925050503d8060008114610ef2576040519150601f19603f3d011682016040523d82523d6000602084013e610ef7565b606091505b5050905080610f3e5760405162461bcd60e51b8152602060048201526013602482015272115512081d1c985b9cd9995c8819985a5b1959606a1b6044820152606401610426565b50610f65565b60028101546004820154610f65916001600160a01b039091169033906110fe565b60058101546001600160a01b031661103e5782341015610fbf5760405162461bcd60e51b8152602060048201526015602482015274125b9cdd59999a58da595b9d08115512081cd95b9d605a1b6044820152606401610426565b82341115610fff57336108fc610fd585346115aa565b6040518115909202916000818181858888f19350505050158015610ffd573d6000803e3d6000fd5b505b80546040516001600160a01b039091169084156108fc029085906000818181858888f19350505050158015611038573d6000803e3d6000fd5b5061105e565b8054600582015461105e916001600160a01b039182169133911686611161565b604051828152339085907fc0dec645483244c37030b06224e60b121eadd7ee71a4ce18862c979d5584042b9060200160405180910390a3506110a06001600055565b505050565b6002600054036110f75760405162461bcd60e51b815260206004820152601f60248201527f5265656e7472616e637947756172643a207265656e7472616e742063616c6c006044820152606401610426565b6002600055565b6040516001600160a01b0383166024820152604481018290526110a090849063a9059cbb60e01b906064015b60408051601f198184030181529190526020810180516001600160e01b03166001600160e01b03199093169290921790915261119f565b6040516001600160a01b03808516602483015283166044820152606481018290526111999085906323b872dd60e01b9060840161112a565b50505050565b60006111f4826040518060400160405280602081526020017f5361666545524332303a206c6f772d6c6576656c2063616c6c206661696c6564815250856001600160a01b03166112749092919063ffffffff16565b905080516000148061121557508080602001905181019061121591906115d1565b6110a05760405162461bcd60e51b815260206004820152602a60248201527f5361666545524332303a204552433230206f7065726174696f6e20646964206e6044820152691bdd081cdd58d8d9595960b21b6064820152608401610426565b6060611283848460008561128b565b949350505050565b6060824710156112ec5760405162461bcd60e51b815260206004820152602660248201527f416464726573733a20696e73756666696369656e742062616c616e636520666f6044820152651c8818d85b1b60d21b6064820152608401610426565b600080866001600160a01b031685876040516113089190611617565b60006040518083038185875af1925050503d8060008114611345576040519150601f19603f3d011682016040523d82523d6000602084013e61134a565b606091505b509150915061135b87838387611366565b979650505050505050565b606083156113d55782516000036113ce576001600160a01b0385163b6113ce5760405162461bcd60e51b815260206004820152601d60248201527f416464726573733a2063616c6c20746f206e6f6e2d636f6e74726163740000006044820152606401610426565b5081611283565b61128383838151156113ea5781518083602001fd5b8060405162461bcd60e51b81526004016104269190611633565b60006020828403121561141657600080fd5b5035919050565b6001600160a01b038116811461062457600080fd5b60006020828403121561144457600080fd5b813561144f8161141d565b9392505050565b81516001600160a01b031681526101408101602083015161148260208401826001600160a01b03169052565b50604083015160408301526060830151606083015260808301516114b160808401826001600160a01b03169052565b5060a08301516114cc60a08401826001600160a01b03169052565b5060c083015160c083015260e083015160e0830152610100808401516114f58285018215159052565b5050610120928301511515919092015290565b60008060008060008060c0878903121561152157600080fd5b863561152c8161141d565b9550602087013561153c8161141d565b95989597505050506040840135936060810135936080820135935060a0909101359150565b60008060006060848603121561157657600080fd5b505081359360208301359350604090920135919050565b60006020828403121561159f57600080fd5b815161144f8161141d565b818103818111156115cb57634e487b7160e01b600052601160045260246000fd5b92915050565b6000602082840312156115e357600080fd5b8151801515811461144f57600080fd5b60005b8381101561160e5781810151838201526020016115f6565b50506000910152565b600082516116298184602087016115f3565b9190910192915050565b60208152600082518060208401526116528160408501602087016115f3565b601f01601f1916919091016040019291505056fea264697066735822122016ef2023eb52aff2fa89ec129d71f4434664c74ad951c026249b280ba920bbaa64736f6c63430008140033","opcodes":"PUSH1 0xA0 PUSH1 0x40 MSTORE CALLVALUE DUP1 ISZERO PUSH2 0x10 JUMPI PUSH1 0x0 DUP1 REVERT JUMPDEST POP PUSH1 0x40 MLOAD PUSH2 0x172C CODESIZE SUB DUP1 PUSH2 0x172C DUP4 CODECOPY DUP2 ADD PUSH1 0x40 DUP2 SWAP1 MSTORE PUSH2 0x2F SWAP2 PUSH2 0x45 JUMP JUMPDEST PUSH1 0x1 PUSH1 0x0 SSTORE PUSH1 0x1 PUSH1 0x1 PUSH1 0xA0 SHL SUB AND PUSH1 0x80 MSTORE PUSH2 0x75 JUMP JUMPDEST PUSH1 0x0 PUSH1 0x20 DUP3 DUP5 SUB SLT ISZERO PUSH2 0x57 JUMPI PUSH1 0x0 DUP1 REVERT JUMPDEST DUP2 MLOAD PUSH1 0x1 PUSH1 0x1 PUSH1 0xA0 SHL SUB DUP2 AND DUP2 EQ PUSH2 0x6E JUMPI PUSH1 0x0 DUP1 REVERT JUMPDEST SWAP4 SWAP3 POP POP POP JUMP JUMPDEST PUSH1 0x80 MLOAD PUSH2 0x169C PUSH2 0x90 PUSH1 0x0 CODECOPY PUSH1 0x0 PUSH2 0x37E ADD MSTORE PUSH2 0x169C PUSH1 0x0 RETURN INVALID PUSH1 0x80 PUSH1 0x40 MSTORE PUSH1 0x4 CALLDATASIZE LT PUSH2 0x8A JUMPI PUSH1 0x0 CALLDATALOAD PUSH1 0xE0 SHR DUP1 PUSH4 0x7535F2DF GT PUSH2 0x59 JUMPI DUP1 PUSH4 0x7535F2DF EQ PUSH2 0x237 JUMPI DUP1 PUSH4 0x9C3F1E90 EQ PUSH2 0x258 JUMPI DUP1 PUSH4 0xA4516C48 EQ PUSH2 0x33C JUMPI DUP1 PUSH4 0xAD5C4648 EQ PUSH2 0x36C JUMPI DUP1 PUSH4 0xF6DCCF2E EQ PUSH2 0x3B8 JUMPI PUSH1 0x0 DUP1 REVERT JUMPDEST DUP1 PUSH4 0x116A1D9A EQ PUSH2 0x96 JUMPI DUP1 PUSH4 0x1F6D2EAC EQ PUSH2 0xB8 JUMPI DUP1 PUSH4 0x5778472A EQ PUSH2 0xFD JUMPI DUP1 PUSH4 0x6808D587 EQ PUSH2 0x217 JUMPI PUSH1 0x0 DUP1 REVERT JUMPDEST CALLDATASIZE PUSH2 0x91 JUMPI STOP JUMPDEST PUSH1 0x0 DUP1 REVERT JUMPDEST CALLVALUE DUP1 ISZERO PUSH2 0xA2 JUMPI PUSH1 0x0 DUP1 REVERT JUMPDEST POP PUSH2 0xB6 PUSH2 0xB1 CALLDATASIZE PUSH1 0x4 PUSH2 0x1404 JUMP JUMPDEST PUSH2 0x3CB JUMP JUMPDEST STOP JUMPDEST CALLVALUE DUP1 ISZERO PUSH2 0xC4 JUMPI PUSH1 0x0 DUP1 REVERT JUMPDEST POP PUSH2 0xE8 PUSH2 0xD3 CALLDATASIZE PUSH1 0x4 PUSH2 0x1432 JUMP JUMPDEST PUSH1 0x3 PUSH1 0x20 MSTORE PUSH1 0x0 SWAP1 DUP2 MSTORE PUSH1 0x40 SWAP1 KECCAK256 SLOAD PUSH1 0xFF AND DUP2 JUMP JUMPDEST PUSH1 0x40 MLOAD SWAP1 ISZERO ISZERO DUP2 MSTORE PUSH1 0x20 ADD JUMPDEST PUSH1 0x40 MLOAD DUP1 SWAP2 SUB SWAP1 RETURN JUMPDEST CALLVALUE DUP1 ISZERO PUSH2 0x109 JUMPI PUSH1 0x0 DUP1 REVERT JUMPDEST POP PUSH2 0x20A PUSH2 0x118 CALLDATASIZE PUSH1 0x4 PUSH2 0x1404 JUMP JUMPDEST PUSH1 0x40 DUP1 MLOAD PUSH2 0x140 DUP2 ADD DUP3 MSTORE PUSH1 0x0 DUP1 DUP3 MSTORE PUSH1 0x20 DUP3 ADD DUP2 SWAP1 MSTORE SWAP2 DUP2 ADD DUP3 SWAP1 MSTORE PUSH1 0x60 DUP2 ADD DUP3 SWAP1 MSTORE PUSH1 0x80 DUP2 ADD DUP3 SWAP1 MSTORE PUSH1 0xA0 DUP2 ADD DUP3 SWAP1 MSTORE PUSH1 0xC0 DUP2 ADD DUP3 SWAP1 MSTORE PUSH1 0xE0 DUP2 ADD DUP3 SWAP1 MSTORE PUSH2 0x100 DUP2 ADD DUP3 SWAP1 MSTORE PUSH2 0x120 DUP2 ADD SWAP2 SWAP1 SWAP2 MSTORE POP PUSH1 0x0 SWAP1 DUP2 MSTORE PUSH1 0x1 PUSH1 0x20 DUP2 DUP2 MSTORE PUSH1 0x40 SWAP3 DUP4 SWAP1 KECCAK256 DUP4 MLOAD PUSH2 0x140 DUP2 ADD DUP6 MSTORE DUP2 SLOAD PUSH1 0x1 PUSH1 0x1 PUSH1 0xA0 SHL SUB SWAP1 DUP2 AND DUP3 MSTORE SWAP4 DUP3 ADD SLOAD DUP5 AND SWAP3 DUP2 ADD SWAP3 SWAP1 SWAP3 MSTORE PUSH1 0x2 DUP2 ADD SLOAD SWAP4 DUP3 ADD SWAP4 SWAP1 SWAP4 MSTORE PUSH1 0x3 DUP4 ADD SLOAD PUSH1 0x60 DUP3 ADD MSTORE PUSH1 0x4 DUP4 ADD SLOAD DUP3 AND PUSH1 0x80 DUP3 ADD MSTORE PUSH1 0x5 DUP4 ADD SLOAD SWAP1 SWAP2 AND PUSH1 0xA0 DUP3 ADD MSTORE PUSH1 0x6 DUP3 ADD SLOAD PUSH1 0xC0 DUP3 ADD MSTORE PUSH1 0x7 DUP3 ADD SLOAD PUSH1 0xE0 DUP3 ADD MSTORE PUSH1 0x8 SWAP1 SWAP2 ADD SLOAD PUSH1 0xFF DUP1 DUP3 AND ISZERO ISZERO PUSH2 0x100 DUP1 DUP6 ADD SWAP2 SWAP1 SWAP2 MSTORE SWAP1 SWAP2 DIV AND ISZERO ISZERO PUSH2 0x120 DUP3 ADD MSTORE SWAP1 JUMP JUMPDEST PUSH1 0x40 MLOAD PUSH2 0xF4 SWAP2 SWAP1 PUSH2 0x1456 JUMP JUMPDEST CALLVALUE DUP1 ISZERO PUSH2 0x223 JUMPI PUSH1 0x0 DUP1 REVERT JUMPDEST POP PUSH2 0xB6 PUSH2 0x232 CALLDATASIZE PUSH1 0x4 PUSH2 0x1432 JUMP JUMPDEST PUSH2 0x627 JUMP JUMPDEST PUSH2 0x24A PUSH2 0x245 CALLDATASIZE PUSH1 0x4 PUSH2 0x1508 JUMP JUMPDEST PUSH2 0x6B4 JUMP JUMPDEST PUSH1 0x40 MLOAD SWAP1 DUP2 MSTORE PUSH1 0x20 ADD PUSH2 0xF4 JUMP JUMPDEST CALLVALUE DUP1 ISZERO PUSH2 0x264 JUMPI PUSH1 0x0 DUP1 REVERT JUMPDEST POP PUSH2 0x2DB PUSH2 0x273 CALLDATASIZE PUSH1 0x4 PUSH2 0x1404 JUMP JUMPDEST PUSH1 0x1 PUSH1 0x20 DUP2 SWAP1 MSTORE PUSH1 0x0 SWAP2 DUP3 MSTORE PUSH1 0x40 SWAP1 SWAP2 KECCAK256 DUP1 SLOAD SWAP2 DUP2 ADD SLOAD PUSH1 0x2 DUP3 ADD SLOAD PUSH1 0x3 DUP4 ADD SLOAD PUSH1 0x4 DUP5 ADD SLOAD PUSH1 0x5 DUP6 ADD SLOAD PUSH1 0x6 DUP7 ADD SLOAD PUSH1 0x7 DUP8 ADD SLOAD PUSH1 0x8 SWAP1 SWAP8 ADD SLOAD PUSH1 0x1 PUSH1 0x1 PUSH1 0xA0 SHL SUB SWAP9 DUP10 AND SWAP9 SWAP7 DUP8 AND SWAP8 SWAP6 SWAP7 SWAP5 SWAP6 SWAP4 DUP6 AND SWAP5 SWAP1 SWAP3 AND SWAP3 SWAP1 SWAP2 PUSH1 0xFF DUP1 DUP3 AND SWAP2 PUSH2 0x100 SWAP1 DIV AND DUP11 JUMP JUMPDEST PUSH1 0x40 DUP1 MLOAD PUSH1 0x1 PUSH1 0x1 PUSH1 0xA0 SHL SUB SWAP12 DUP13 AND DUP2 MSTORE SWAP10 DUP12 AND PUSH1 0x20 DUP12 ADD MSTORE DUP10 ADD SWAP8 SWAP1 SWAP8 MSTORE PUSH1 0x60 DUP9 ADD SWAP6 SWAP1 SWAP6 MSTORE SWAP3 DUP8 AND PUSH1 0x80 DUP8 ADD MSTORE SWAP6 AND PUSH1 0xA0 DUP6 ADD MSTORE PUSH1 0xC0 DUP5 ADD SWAP5 SWAP1 SWAP5 MSTORE PUSH1 0xE0 DUP4 ADD SWAP4 SWAP1 SWAP4 MSTORE SWAP2 ISZERO ISZERO PUSH2 0x100 DUP3 ADD MSTORE SWAP1 ISZERO ISZERO PUSH2 0x120 DUP3 ADD MSTORE PUSH2 0x140 ADD PUSH2 0xF4 JUMP JUMPDEST CALLVALUE DUP1 ISZERO PUSH2 0x348 JUMPI PUSH1 0x0 DUP1 REVERT JUMPDEST POP PUSH2 0xE8 PUSH2 0x357 CALLDATASIZE PUSH1 0x4 PUSH2 0x1404 JUMP JUMPDEST PUSH1 0x2 PUSH1 0x20 MSTORE PUSH1 0x0 SWAP1 DUP2 MSTORE PUSH1 0x40 SWAP1 KECCAK256 SLOAD PUSH1 0xFF AND DUP2 JUMP JUMPDEST CALLVALUE DUP1 ISZERO PUSH2 0x378 JUMPI PUSH1 0x0 DUP1 REVERT JUMPDEST POP PUSH2 0x3A0 PUSH32 0x0 DUP2 JUMP JUMPDEST PUSH1 0x40 MLOAD PUSH1 0x1 PUSH1 0x1 PUSH1 0xA0 SHL SUB SWAP1 SWAP2 AND DUP2 MSTORE PUSH1 0x20 ADD PUSH2 0xF4 JUMP JUMPDEST PUSH2 0xB6 PUSH2 0x3C6 CALLDATASIZE PUSH1 0x4 PUSH2 0x1561 JUMP JUMPDEST PUSH2 0xAD8 JUMP JUMPDEST PUSH2 0x3D3 PUSH2 0x10A5 JUMP JUMPDEST PUSH1 0x0 DUP2 DUP2 MSTORE PUSH1 0x1 PUSH1 0x20 MSTORE PUSH1 0x40 SWAP1 KECCAK256 DUP1 SLOAD PUSH1 0x1 PUSH1 0x1 PUSH1 0xA0 SHL SUB AND PUSH2 0x42F JUMPI PUSH1 0x40 MLOAD PUSH3 0x461BCD PUSH1 0xE5 SHL DUP2 MSTORE PUSH1 0x20 PUSH1 0x4 DUP3 ADD MSTORE PUSH1 0xF PUSH1 0x24 DUP3 ADD MSTORE PUSH15 0x13DC99195C881B9BDD08199BDD5B99 PUSH1 0x8A SHL PUSH1 0x44 DUP3 ADD MSTORE PUSH1 0x64 ADD JUMPDEST PUSH1 0x40 MLOAD DUP1 SWAP2 SUB SWAP1 REVERT JUMPDEST PUSH1 0x8 DUP2 ADD SLOAD PUSH1 0xFF AND ISZERO PUSH2 0x47E JUMPI PUSH1 0x40 MLOAD PUSH3 0x461BCD PUSH1 0xE5 SHL DUP2 MSTORE PUSH1 0x20 PUSH1 0x4 DUP3 ADD MSTORE PUSH1 0x17 PUSH1 0x24 DUP3 ADD MSTORE PUSH23 0x13DC99195C88185B1C9958591E48199D5B199A5B1B1959 PUSH1 0x4A SHL PUSH1 0x44 DUP3 ADD MSTORE PUSH1 0x64 ADD PUSH2 0x426 JUMP JUMPDEST PUSH1 0x8 DUP2 ADD SLOAD PUSH2 0x100 SWAP1 DIV PUSH1 0xFF AND ISZERO PUSH2 0x4CB JUMPI PUSH1 0x40 MLOAD PUSH3 0x461BCD PUSH1 0xE5 SHL DUP2 MSTORE PUSH1 0x20 PUSH1 0x4 DUP3 ADD MSTORE PUSH1 0x10 PUSH1 0x24 DUP3 ADD MSTORE PUSH16 0x105B1C9958591E481C99599D5B991959 PUSH1 0x82 SHL PUSH1 0x44 DUP3 ADD MSTORE PUSH1 0x64 ADD PUSH2 0x426 JUMP JUMPDEST DUP1 PUSH1 0x6 ADD SLOAD TIMESTAMP GT PUSH2 0x515 JUMPI PUSH1 0x40 MLOAD PUSH3 0x461BCD PUSH1 0xE5 SHL DUP2 MSTORE PUSH1 0x20 PUSH1 0x4 DUP3 ADD MSTORE PUSH1 0x14 PUSH1 0x24 DUP3 ADD MSTORE PUSH20 0x111958591B1A5B99481B9BDD081C995858DA1959 PUSH1 0x62 SHL PUSH1 0x44 DUP3 ADD MSTORE PUSH1 0x64 ADD PUSH2 0x426 JUMP JUMPDEST DUP1 SLOAD PUSH1 0x1 PUSH1 0x1 PUSH1 0xA0 SHL SUB AND CALLER EQ PUSH2 0x564 JUMPI PUSH1 0x40 MLOAD PUSH3 0x461BCD PUSH1 0xE5 SHL DUP2 MSTORE PUSH1 0x20 PUSH1 0x4 DUP3 ADD MSTORE PUSH1 0x13 PUSH1 0x24 DUP3 ADD MSTORE PUSH19 0x2737BA1037B93232B91034B734BA34B0BA37B9 PUSH1 0x69 SHL PUSH1 0x44 DUP3 ADD MSTORE PUSH1 0x64 ADD PUSH2 0x426 JUMP JUMPDEST PUSH1 0x8 DUP2 ADD DUP1 SLOAD PUSH2 0xFF00 NOT AND PUSH2 0x100 OR SWAP1 SSTORE PUSH1 0x4 DUP2 ADD SLOAD PUSH1 0x1 PUSH1 0x1 PUSH1 0xA0 SHL SUB AND PUSH2 0x5CA JUMPI DUP1 SLOAD PUSH1 0x2 DUP3 ADD SLOAD PUSH1 0x40 MLOAD PUSH1 0x1 PUSH1 0x1 PUSH1 0xA0 SHL SUB SWAP1 SWAP3 AND SWAP2 DUP2 ISZERO PUSH2 0x8FC MUL SWAP2 SWAP1 PUSH1 0x0 DUP2 DUP2 DUP2 DUP6 DUP9 DUP9 CALL SWAP4 POP POP POP POP ISZERO DUP1 ISZERO PUSH2 0x5C4 JUMPI RETURNDATASIZE PUSH1 0x0 DUP1 RETURNDATACOPY RETURNDATASIZE PUSH1 0x0 REVERT JUMPDEST POP PUSH2 0x5EE JUMP JUMPDEST DUP1 SLOAD PUSH1 0x2 DUP3 ADD SLOAD PUSH1 0x4 DUP4 ADD SLOAD PUSH2 0x5EE SWAP3 PUSH1 0x1 PUSH1 0x1 PUSH1 0xA0 SHL SUB SWAP2 DUP3 AND SWAP3 SWAP2 AND SWAP1 PUSH2 0x10FE JUMP JUMPDEST PUSH1 0x40 MLOAD DUP3 SWAP1 PUSH32 0xA60671D8537ED193E567F86DDF28CF35DC67073B5AD80A2D41359CFA78DB0A1E SWAP1 PUSH1 0x0 SWAP1 LOG2 POP PUSH2 0x624 PUSH1 0x1 PUSH1 0x0 SSTORE JUMP JUMPDEST POP JUMP JUMPDEST PUSH1 0x1 PUSH1 0x1 PUSH1 0xA0 SHL SUB DUP2 AND PUSH1 0x0 SWAP1 DUP2 MSTORE PUSH1 0x3 PUSH1 0x20 MSTORE PUSH1 0x40 SWAP1 KECCAK256 SLOAD PUSH1 0xFF AND ISZERO PUSH2 0x690 JUMPI PUSH1 0x40 MLOAD PUSH3 0x461BCD PUSH1 0xE5 SHL DUP2 MSTORE PUSH1 0x20 PUSH1 0x4 DUP3 ADD MSTORE PUSH1 0x1F PUSH1 0x24 DUP3 ADD MSTORE PUSH32 0x576F726B657257616C6C657420616C7265616479207265676973746572656400 PUSH1 0x44 DUP3 ADD MSTORE PUSH1 0x64 ADD PUSH2 0x426 JUMP JUMPDEST PUSH1 0x1 PUSH1 0x1 PUSH1 0xA0 SHL SUB AND PUSH1 0x0 SWAP1 DUP2 MSTORE PUSH1 0x3 PUSH1 0x20 MSTORE PUSH1 0x40 SWAP1 KECCAK256 DUP1 SLOAD PUSH1 0xFF NOT AND PUSH1 0x1 OR SWAP1 SSTORE JUMP JUMPDEST PUSH1 0x0 PUSH2 0x6BE PUSH2 0x10A5 JUMP JUMPDEST PUSH1 0x0 DUP6 GT PUSH2 0x6FC JUMPI PUSH1 0x40 MLOAD PUSH3 0x461BCD PUSH1 0xE5 SHL DUP2 MSTORE PUSH1 0x20 PUSH1 0x4 DUP3 ADD MSTORE PUSH1 0xB PUSH1 0x24 DUP3 ADD MSTORE PUSH11 0x16995C9BC8185B5BDD5B9D PUSH1 0xAA SHL PUSH1 0x44 DUP3 ADD MSTORE PUSH1 0x64 ADD PUSH2 0x426 JUMP JUMPDEST TIMESTAMP DUP4 GT PUSH2 0x73E JUMPI PUSH1 0x40 MLOAD PUSH3 0x461BCD PUSH1 0xE5 SHL DUP2 MSTORE PUSH1 0x20 PUSH1 0x4 DUP3 ADD MSTORE PUSH1 0x10 PUSH1 0x24 DUP3 ADD MSTORE PUSH16 0x496E76616C696420646561646C696E65 PUSH1 0x80 SHL PUSH1 0x44 DUP3 ADD MSTORE PUSH1 0x64 ADD PUSH2 0x426 JUMP JUMPDEST DUP2 PUSH2 0x781 JUMPI PUSH1 0x40 MLOAD PUSH3 0x461BCD PUSH1 0xE5 SHL DUP2 MSTORE PUSH1 0x20 PUSH1 0x4 DUP3 ADD MSTORE PUSH1 0x13 PUSH1 0x24 DUP3 ADD MSTORE PUSH19 0x92DCECC2D8D2C840E6CAC6E4CAE840D0C2E6D PUSH1 0x6B SHL PUSH1 0x44 DUP3 ADD MSTORE PUSH1 0x64 ADD PUSH2 0x426 JUMP JUMPDEST PUSH1 0x40 MLOAD PUSH12 0xFFFFFFFFFFFFFFFFFFFFFFFF NOT CALLER PUSH1 0x60 SWAP1 DUP2 SHL DUP3 AND PUSH1 0x20 DUP5 ADD MSTORE TIMESTAMP PUSH1 0x34 DUP5 ADD MSTORE PUSH1 0x54 DUP4 ADD DUP9 SWAP1 MSTORE DUP10 DUP2 SHL DUP3 AND PUSH1 0x74 DUP5 ADD MSTORE DUP9 SWAP1 SHL AND PUSH1 0x88 DUP3 ADD MSTORE PUSH1 0x9C DUP2 ADD DUP4 SWAP1 MSTORE PUSH1 0x0 SWAP1 PUSH1 0xBC ADD PUSH1 0x40 DUP1 MLOAD PUSH1 0x1F NOT DUP2 DUP5 SUB ADD DUP2 MSTORE SWAP2 DUP2 MSTORE DUP2 MLOAD PUSH1 0x20 SWAP3 DUP4 ADD KECCAK256 PUSH1 0x0 DUP2 DUP2 MSTORE PUSH1 0x1 SWAP1 SWAP4 MSTORE SWAP2 KECCAK256 SLOAD SWAP1 SWAP2 POP PUSH1 0x1 PUSH1 0x1 PUSH1 0xA0 SHL SUB AND ISZERO PUSH2 0x839 JUMPI PUSH1 0x40 MLOAD PUSH3 0x461BCD PUSH1 0xE5 SHL DUP2 MSTORE PUSH1 0x20 PUSH1 0x4 DUP3 ADD MSTORE PUSH1 0xC PUSH1 0x24 DUP3 ADD MSTORE PUSH12 0x4F7264657220657869737473 PUSH1 0xA0 SHL PUSH1 0x44 DUP3 ADD MSTORE PUSH1 0x64 ADD PUSH2 0x426 JUMP JUMPDEST PUSH1 0x1 PUSH1 0x1 PUSH1 0xA0 SHL SUB DUP9 AND PUSH2 0x892 JUMPI DUP6 CALLVALUE EQ PUSH2 0x88D JUMPI PUSH1 0x40 MLOAD PUSH3 0x461BCD PUSH1 0xE5 SHL DUP2 MSTORE PUSH1 0x20 PUSH1 0x4 DUP3 ADD MSTORE PUSH1 0x14 PUSH1 0x24 DUP3 ADD MSTORE PUSH20 0x125B98DBDC9C9958DD0811551208185B5BDD5B9D PUSH1 0x62 SHL PUSH1 0x44 DUP3 ADD MSTORE PUSH1 0x64 ADD PUSH2 0x426 JUMP JUMPDEST PUSH2 0x8A7 JUMP JUMPDEST PUSH2 0x8A7 PUSH1 0x1 PUSH1 0x1 PUSH1 0xA0 SHL SUB DUP10 AND CALLER ADDRESS DUP10 PUSH2 0x1161 JUMP JUMPDEST PUSH1 0x40 MLOAD DUP1 PUSH2 0x140 ADD PUSH1 0x40 MSTORE DUP1 CALLER PUSH1 0x1 PUSH1 0x1 PUSH1 0xA0 SHL SUB AND DUP2 MSTORE PUSH1 0x20 ADD PUSH1 0x0 PUSH1 0x1 PUSH1 0x1 PUSH1 0xA0 SHL SUB AND DUP2 MSTORE PUSH1 0x20 ADD DUP8 DUP2 MSTORE PUSH1 0x20 ADD DUP7 DUP2 MSTORE PUSH1 0x20 ADD DUP10 PUSH1 0x1 PUSH1 0x1 PUSH1 0xA0 SHL SUB AND DUP2 MSTORE PUSH1 0x20 ADD DUP9 PUSH1 0x1 PUSH1 0x1 PUSH1 0xA0 SHL SUB AND DUP2 MSTORE PUSH1 0x20 ADD DUP6 DUP2 MSTORE PUSH1 0x20 ADD DUP5 DUP2 MSTORE PUSH1 0x20 ADD PUSH1 0x0 ISZERO ISZERO DUP2 MSTORE PUSH1 0x20 ADD PUSH1 0x0 ISZERO ISZERO DUP2 MSTORE POP PUSH1 0x1 PUSH1 0x0 DUP4 DUP2 MSTORE PUSH1 0x20 ADD SWAP1 DUP2 MSTORE PUSH1 0x20 ADD PUSH1 0x0 KECCAK256 PUSH1 0x0 DUP3 ADD MLOAD DUP2 PUSH1 0x0 ADD PUSH1 0x0 PUSH2 0x100 EXP DUP2 SLOAD DUP2 PUSH1 0x1 PUSH1 0x1 PUSH1 0xA0 SHL SUB MUL NOT AND SWAP1 DUP4 PUSH1 0x1 PUSH1 0x1 PUSH1 0xA0 SHL SUB AND MUL OR SWAP1 SSTORE POP PUSH1 0x20 DUP3 ADD MLOAD DUP2 PUSH1 0x1 ADD PUSH1 0x0 PUSH2 0x100 EXP DUP2 SLOAD DUP2 PUSH1 0x1 PUSH1 0x1 PUSH1 0xA0 SHL SUB MUL NOT AND SWAP1 DUP4 PUSH1 0x1 PUSH1 0x1 PUSH1 0xA0 SHL SUB AND MUL OR SWAP1 SSTORE POP PUSH1 0x40 DUP3 ADD MLOAD DUP2 PUSH1 0x2 ADD SSTORE PUSH1 0x60 DUP3 ADD MLOAD DUP2 PUSH1 0x3 ADD SSTORE PUSH1 0x80 DUP3 ADD MLOAD DUP2 PUSH1 0x4 ADD PUSH1 0x0 PUSH2 0x100 EXP DUP2 SLOAD DUP2 PUSH1 0x1 PUSH1 0x1 PUSH1 0xA0 SHL SUB MUL NOT AND SWAP1 DUP4 PUSH1 0x1 PUSH1 0x1 PUSH1 0xA0 SHL SUB AND MUL OR SWAP1 SSTORE POP PUSH1 0xA0 DUP3 ADD MLOAD DUP2 PUSH1 0x5 ADD PUSH1 0x0 PUSH2 0x100 EXP DUP2 SLOAD DUP2 PUSH1 0x1 PUSH1 0x1 PUSH1 0xA0 SHL SUB MUL NOT AND SWAP1 DUP4 PUSH1 0x1 PUSH1 0x1 PUSH1 0xA0 SHL SUB AND MUL OR SWAP1 SSTORE POP PUSH1 0xC0 DUP3 ADD MLOAD DUP2 PUSH1 0x6 ADD SSTORE PUSH1 0xE0 DUP3 ADD MLOAD DUP2 PUSH1 0x7 ADD SSTORE PUSH2 0x100 DUP3 ADD MLOAD DUP2 PUSH1 0x8 ADD PUSH1 0x0 PUSH2 0x100 EXP DUP2 SLOAD DUP2 PUSH1 0xFF MUL NOT AND SWAP1 DUP4 ISZERO ISZERO MUL OR SWAP1 SSTORE POP PUSH2 0x120 DUP3 ADD MLOAD DUP2 PUSH1 0x8 ADD PUSH1 0x1 PUSH2 0x100 EXP DUP2 SLOAD DUP2 PUSH1 0xFF MUL NOT AND SWAP1 DUP4 ISZERO ISZERO MUL OR SWAP1 SSTORE POP SWAP1 POP POP CALLER PUSH1 0x1 PUSH1 0x1 PUSH1 0xA0 SHL SUB AND DUP2 PUSH32 0x958DA44420B864737AD53EA0AA959279A3E21574047C9737DF230D1F350577A0 DUP11 DUP11 DUP11 DUP11 DUP10 PUSH1 0x40 MLOAD PUSH2 0xABA SWAP6 SWAP5 SWAP4 SWAP3 SWAP2 SWAP1 PUSH1 0x1 PUSH1 0x1 PUSH1 0xA0 SHL SUB SWAP6 DUP7 AND DUP2 MSTORE SWAP4 SWAP1 SWAP5 AND PUSH1 0x20 DUP5 ADD MSTORE PUSH1 0x40 DUP4 ADD SWAP2 SWAP1 SWAP2 MSTORE PUSH1 0x60 DUP3 ADD MSTORE PUSH1 0x80 DUP2 ADD SWAP2 SWAP1 SWAP2 MSTORE PUSH1 0xA0 ADD SWAP1 JUMP JUMPDEST PUSH1 0x40 MLOAD DUP1 SWAP2 SUB SWAP1 LOG3 SWAP1 POP PUSH2 0xACE PUSH1 0x1 PUSH1 0x0 SSTORE JUMP JUMPDEST SWAP7 SWAP6 POP POP POP POP POP POP JUMP JUMPDEST PUSH2 0xAE0 PUSH2 0x10A5 JUMP JUMPDEST PUSH1 0x0 DUP4 DUP2 MSTORE PUSH1 0x1 PUSH1 0x20 MSTORE PUSH1 0x40 SWAP1 KECCAK256 DUP1 SLOAD PUSH1 0x1 PUSH1 0x1 PUSH1 0xA0 SHL SUB AND PUSH2 0xB37 JUMPI PUSH1 0x40 MLOAD PUSH3 0x461BCD PUSH1 0xE5 SHL DUP2 MSTORE PUSH1 0x20 PUSH1 0x4 DUP3 ADD MSTORE PUSH1 0xF PUSH1 0x24 DUP3 ADD MSTORE PUSH15 0x13DC99195C881B9BDD08199BDD5B99 PUSH1 0x8A SHL PUSH1 0x44 DUP3 ADD MSTORE PUSH1 0x64 ADD PUSH2 0x426 JUMP JUMPDEST PUSH1 0x8 DUP2 ADD SLOAD PUSH1 0xFF AND ISZERO PUSH2 0xB86 JUMPI PUSH1 0x40 MLOAD PUSH3 0x461BCD PUSH1 0xE5 SHL DUP2 MSTORE PUSH1 0x20 PUSH1 0x4 DUP3 ADD MSTORE PUSH1 0x17 PUSH1 0x24 DUP3 ADD MSTORE PUSH23 0x13DC99195C88185B1C9958591E48199D5B199A5B1B1959 PUSH1 0x4A SHL PUSH1 0x44 DUP3 ADD MSTORE PUSH1 0x64 ADD PUSH2 0x426 JUMP JUMPDEST PUSH1 0x8 DUP2 ADD SLOAD PUSH2 0x100 SWAP1 DIV PUSH1 0xFF AND ISZERO PUSH2 0xBD5 JUMPI PUSH1 0x40 MLOAD PUSH3 0x461BCD PUSH1 0xE5 SHL DUP2 MSTORE PUSH1 0x20 PUSH1 0x4 DUP3 ADD MSTORE PUSH1 0x12 PUSH1 0x24 DUP3 ADD MSTORE PUSH18 0x13DC99195C881DD85CC81C99599D5B991959 PUSH1 0x72 SHL PUSH1 0x44 DUP3 ADD MSTORE PUSH1 0x64 ADD PUSH2 0x426 JUMP JUMPDEST DUP1 PUSH1 0x6 ADD SLOAD TIMESTAMP GT ISZERO PUSH2 0xC19 JUMPI PUSH1 0x40 MLOAD PUSH3 0x461BCD PUSH1 0xE5 SHL DUP2 MSTORE PUSH1 0x20 PUSH1 0x4 DUP3 ADD MSTORE PUSH1 0xD PUSH1 0x24 DUP3 ADD MSTORE PUSH13 0x13DC99195C88195E1C1A5C9959 PUSH1 0x9A SHL PUSH1 0x44 DUP3 ADD MSTORE PUSH1 0x64 ADD PUSH2 0x426 JUMP JUMPDEST PUSH1 0x7 DUP2 ADD SLOAD PUSH1 0x40 DUP1 MLOAD PUSH1 0x20 DUP2 ADD DUP6 SWAP1 MSTORE ADD PUSH1 0x40 MLOAD PUSH1 0x20 DUP2 DUP4 SUB SUB DUP2 MSTORE SWAP1 PUSH1 0x40 MSTORE DUP1 MLOAD SWAP1 PUSH1 0x20 ADD KECCAK256 EQ PUSH2 0xC7E JUMPI PUSH1 0x40 MLOAD PUSH3 0x461BCD PUSH1 0xE5 SHL DUP2 MSTORE PUSH1 0x20 PUSH1 0x4 DUP3 ADD MSTORE PUSH1 0xE PUSH1 0x24 DUP3 ADD MSTORE PUSH14 0x125B9D985B1A59081CD958DC995D PUSH1 0x92 SHL PUSH1 0x44 DUP3 ADD MSTORE PUSH1 0x64 ADD PUSH2 0x426 JUMP JUMPDEST PUSH1 0x0 DUP3 DUP2 MSTORE PUSH1 0x2 PUSH1 0x20 MSTORE PUSH1 0x40 SWAP1 KECCAK256 SLOAD PUSH1 0xFF AND ISZERO PUSH2 0xCD3 JUMPI PUSH1 0x40 MLOAD PUSH3 0x461BCD PUSH1 0xE5 SHL DUP2 MSTORE PUSH1 0x20 PUSH1 0x4 DUP3 ADD MSTORE PUSH1 0x13 PUSH1 0x24 DUP3 ADD MSTORE PUSH19 0x14D958DC995D08185B1C9958591E481D5CD959 PUSH1 0x6A SHL PUSH1 0x44 DUP3 ADD MSTORE PUSH1 0x64 ADD PUSH2 0x426 JUMP JUMPDEST DUP1 PUSH1 0x3 ADD SLOAD DUP4 LT ISZERO PUSH2 0xD27 JUMPI PUSH1 0x40 MLOAD PUSH3 0x461BCD PUSH1 0xE5 SHL DUP2 MSTORE PUSH1 0x20 PUSH1 0x4 DUP3 ADD MSTORE PUSH1 0x1A PUSH1 0x24 DUP3 ADD MSTORE PUSH32 0x496E73756666696369656E74206F757470757420616D6F756E74000000000000 PUSH1 0x44 DUP3 ADD MSTORE PUSH1 0x64 ADD PUSH2 0x426 JUMP JUMPDEST CALLER PUSH1 0x0 SWAP1 DUP2 MSTORE PUSH1 0x3 PUSH1 0x20 MSTORE PUSH1 0x40 SWAP1 KECCAK256 SLOAD PUSH1 0xFF AND ISZERO PUSH2 0xE08 JUMPI PUSH1 0x0 CALLER SWAP1 POP ORIGIN PUSH1 0x1 PUSH1 0x1 PUSH1 0xA0 SHL SUB AND DUP2 PUSH1 0x1 PUSH1 0x1 PUSH1 0xA0 SHL SUB AND PUSH4 0x8DA5CB5B PUSH1 0x40 MLOAD DUP2 PUSH4 0xFFFFFFFF AND PUSH1 0xE0 SHL DUP2 MSTORE PUSH1 0x4 ADD PUSH1 0x20 PUSH1 0x40 MLOAD DUP1 DUP4 SUB DUP2 DUP7 GAS STATICCALL ISZERO DUP1 ISZERO PUSH2 0xD8C JUMPI RETURNDATASIZE PUSH1 0x0 DUP1 RETURNDATACOPY RETURNDATASIZE PUSH1 0x0 REVERT JUMPDEST POP POP POP POP PUSH1 0x40 MLOAD RETURNDATASIZE PUSH1 0x1F NOT PUSH1 0x1F DUP3 ADD AND DUP3 ADD DUP1 PUSH1 0x40 MSTORE POP DUP2 ADD SWAP1 PUSH2 0xDB0 SWAP2 SWAP1 PUSH2 0x158D JUMP JUMPDEST PUSH1 0x1 PUSH1 0x1 PUSH1 0xA0 SHL SUB AND EQ PUSH2 0xE06 JUMPI PUSH1 0x40 MLOAD PUSH3 0x461BCD PUSH1 0xE5 SHL DUP2 MSTORE PUSH1 0x20 PUSH1 0x4 DUP3 ADD MSTORE PUSH1 0x17 PUSH1 0x24 DUP3 ADD MSTORE PUSH32 0x4E6F7420776F726B65722077616C6C6574206F776E6572000000000000000000 PUSH1 0x44 DUP3 ADD MSTORE PUSH1 0x64 ADD PUSH2 0x426 JUMP JUMPDEST POP JUMPDEST PUSH1 0x8 DUP2 ADD DUP1 SLOAD PUSH1 0xFF NOT SWAP1 DUP2 AND PUSH1 0x1 SWAP1 DUP2 OR SWAP1 SWAP3 SSTORE DUP3 DUP3 ADD DUP1 SLOAD PUSH1 0x1 PUSH1 0x1 PUSH1 0xA0 SHL SUB NOT AND CALLER OR SWAP1 SSTORE PUSH1 0x0 DUP5 DUP2 MSTORE PUSH1 0x2 PUSH1 0x20 MSTORE PUSH1 0x40 SWAP1 KECCAK256 DUP1 SLOAD SWAP1 SWAP2 AND SWAP1 SWAP2 OR SWAP1 SSTORE PUSH1 0x4 DUP2 ADD SLOAD PUSH1 0x1 PUSH1 0x1 PUSH1 0xA0 SHL SUB AND PUSH2 0xF44 JUMPI DUP1 PUSH1 0x2 ADD SLOAD SELFBALANCE LT ISZERO PUSH2 0xEAD JUMPI PUSH1 0x40 MLOAD PUSH3 0x461BCD PUSH1 0xE5 SHL DUP2 MSTORE PUSH1 0x20 PUSH1 0x4 DUP3 ADD MSTORE PUSH1 0x18 PUSH1 0x24 DUP3 ADD MSTORE PUSH32 0x496E73756666696369656E74204554482062616C616E63650000000000000000 PUSH1 0x44 DUP3 ADD MSTORE PUSH1 0x64 ADD PUSH2 0x426 JUMP JUMPDEST PUSH1 0x2 DUP2 ADD SLOAD PUSH1 0x40 MLOAD PUSH1 0x0 SWAP2 CALLER SWAP2 DUP4 DUP2 DUP2 DUP2 DUP6 DUP8 GAS CALL SWAP3 POP POP POP RETURNDATASIZE DUP1 PUSH1 0x0 DUP2 EQ PUSH2 0xEF2 JUMPI PUSH1 0x40 MLOAD SWAP2 POP PUSH1 0x1F NOT PUSH1 0x3F RETURNDATASIZE ADD AND DUP3 ADD PUSH1 0x40 MSTORE RETURNDATASIZE DUP3 MSTORE RETURNDATASIZE PUSH1 0x0 PUSH1 0x20 DUP5 ADD RETURNDATACOPY PUSH2 0xEF7 JUMP JUMPDEST PUSH1 0x60 SWAP2 POP JUMPDEST POP POP SWAP1 POP DUP1 PUSH2 0xF3E JUMPI PUSH1 0x40 MLOAD PUSH3 0x461BCD PUSH1 0xE5 SHL DUP2 MSTORE PUSH1 0x20 PUSH1 0x4 DUP3 ADD MSTORE PUSH1 0x13 PUSH1 0x24 DUP3 ADD MSTORE PUSH19 0x115512081D1C985B9CD9995C8819985A5B1959 PUSH1 0x6A SHL PUSH1 0x44 DUP3 ADD MSTORE PUSH1 0x64 ADD PUSH2 0x426 JUMP JUMPDEST POP PUSH2 0xF65 JUMP JUMPDEST PUSH1 0x2 DUP2 ADD SLOAD PUSH1 0x4 DUP3 ADD SLOAD PUSH2 0xF65 SWAP2 PUSH1 0x1 PUSH1 0x1 PUSH1 0xA0 SHL SUB SWAP1 SWAP2 AND SWAP1 CALLER SWAP1 PUSH2 0x10FE JUMP JUMPDEST PUSH1 0x5 DUP2 ADD SLOAD PUSH1 0x1 PUSH1 0x1 PUSH1 0xA0 SHL SUB AND PUSH2 0x103E JUMPI DUP3 CALLVALUE LT ISZERO PUSH2 0xFBF JUMPI PUSH1 0x40 MLOAD PUSH3 0x461BCD PUSH1 0xE5 SHL DUP2 MSTORE PUSH1 0x20 PUSH1 0x4 DUP3 ADD MSTORE PUSH1 0x15 PUSH1 0x24 DUP3 ADD MSTORE PUSH21 0x125B9CDD59999A58DA595B9D08115512081CD95B9D PUSH1 0x5A SHL PUSH1 0x44 DUP3 ADD MSTORE PUSH1 0x64 ADD PUSH2 0x426 JUMP JUMPDEST DUP3 CALLVALUE GT ISZERO PUSH2 0xFFF JUMPI CALLER PUSH2 0x8FC PUSH2 0xFD5 DUP6 CALLVALUE PUSH2 0x15AA JUMP JUMPDEST PUSH1 0x40 MLOAD DUP2 ISZERO SWAP1 SWAP3 MUL SWAP2 PUSH1 0x0 DUP2 DUP2 DUP2 DUP6 DUP9 DUP9 CALL SWAP4 POP POP POP POP ISZERO DUP1 ISZERO PUSH2 0xFFD JUMPI RETURNDATASIZE PUSH1 0x0 DUP1 RETURNDATACOPY RETURNDATASIZE PUSH1 0x0 REVERT JUMPDEST POP JUMPDEST DUP1 SLOAD PUSH1 0x40 MLOAD PUSH1 0x1 PUSH1 0x1 PUSH1 0xA0 SHL SUB SWAP1 SWAP2 AND SWAP1 DUP5 ISZERO PUSH2 0x8FC MUL SWAP1 DUP6 SWAP1 PUSH1 0x0 DUP2 DUP2 DUP2 DUP6 DUP9 DUP9 CALL SWAP4 POP POP POP POP ISZERO DUP1 ISZERO PUSH2 0x1038 JUMPI RETURNDATASIZE PUSH1 0x0 DUP1 RETURNDATACOPY RETURNDATASIZE PUSH1 0x0 REVERT JUMPDEST POP PUSH2 0x105E JUMP JUMPDEST DUP1 SLOAD PUSH1 0x5 DUP3 ADD SLOAD PUSH2 0x105E SWAP2 PUSH1 0x1 PUSH1 0x1 PUSH1 0xA0 SHL SUB SWAP2 DUP3 AND SWAP2 CALLER SWAP2 AND DUP7 PUSH2 0x1161 JUMP JUMPDEST PUSH1 0x40 MLOAD DUP3 DUP2 MSTORE CALLER SWAP1 DUP6 SWAP1 PUSH32 0xC0DEC645483244C37030B06224E60B121EADD7EE71A4CE18862C979D5584042B SWAP1 PUSH1 0x20 ADD PUSH1 0x40 MLOAD DUP1 SWAP2 SUB SWAP1 LOG3 POP PUSH2 0x10A0 PUSH1 0x1 PUSH1 0x0 SSTORE JUMP JUMPDEST POP POP POP JUMP JUMPDEST PUSH1 0x2 PUSH1 0x0 SLOAD SUB PUSH2 0x10F7 JUMPI PUSH1 0x40 MLOAD PUSH3 0x461BCD PUSH1 0xE5 SHL DUP2 MSTORE PUSH1 0x20 PUSH1 0x4 DUP3 ADD MSTORE PUSH1 0x1F PUSH1 0x24 DUP3 ADD MSTORE PUSH32 0x5265656E7472616E637947756172643A207265656E7472616E742063616C6C00 PUSH1 0x44 DUP3 ADD MSTORE PUSH1 0x64 ADD PUSH2 0x426 JUMP JUMPDEST PUSH1 0x2 PUSH1 0x0 SSTORE JUMP JUMPDEST PUSH1 0x40 MLOAD PUSH1 0x1 PUSH1 0x1 PUSH1 0xA0 SHL SUB DUP4 AND PUSH1 0x24 DUP3 ADD MSTORE PUSH1 0x44 DUP2 ADD DUP3 SWAP1 MSTORE PUSH2 0x10A0 SWAP1 DUP5 SWAP1 PUSH4 0xA9059CBB PUSH1 0xE0 SHL SWAP1 PUSH1 0x64 ADD JUMPDEST PUSH1 0x40 DUP1 MLOAD PUSH1 0x1F NOT DUP2 DUP5 SUB ADD DUP2 MSTORE SWAP2 SWAP1 MSTORE PUSH1 0x20 DUP2 ADD DUP1 MLOAD PUSH1 0x1 PUSH1 0x1 PUSH1 0xE0 SHL SUB AND PUSH1 0x1 PUSH1 0x1 PUSH1 0xE0 SHL SUB NOT SWAP1 SWAP4 AND SWAP3 SWAP1 SWAP3 OR SWAP1 SWAP2 MSTORE PUSH2 0x119F JUMP JUMPDEST PUSH1 0x40 MLOAD PUSH1 0x1 PUSH1 0x1 PUSH1 0xA0 SHL SUB DUP1 DUP6 AND PUSH1 0x24 DUP4 ADD MSTORE DUP4 AND PUSH1 0x44 DUP3 ADD MSTORE PUSH1 0x64 DUP2 ADD DUP3 SWAP1 MSTORE PUSH2 0x1199 SWAP1 DUP6 SWAP1 PUSH4 0x23B872DD PUSH1 0xE0 SHL SWAP1 PUSH1 0x84 ADD PUSH2 0x112A JUMP JUMPDEST POP POP POP POP JUMP JUMPDEST PUSH1 0x0 PUSH2 0x11F4 DUP3 PUSH1 0x40 MLOAD DUP1 PUSH1 0x40 ADD PUSH1 0x40 MSTORE DUP1 PUSH1 0x20 DUP2 MSTORE PUSH1 0x20 ADD PUSH32 0x5361666545524332303A206C6F772D6C6576656C2063616C6C206661696C6564 DUP2 MSTORE POP DUP6 PUSH1 0x1 PUSH1 0x1 PUSH1 0xA0 SHL SUB AND PUSH2 0x1274 SWAP1 SWAP3 SWAP2 SWAP1 PUSH4 0xFFFFFFFF AND JUMP JUMPDEST SWAP1 POP DUP1 MLOAD PUSH1 0x0 EQ DUP1 PUSH2 0x1215 JUMPI POP DUP1 DUP1 PUSH1 0x20 ADD SWAP1 MLOAD DUP2 ADD SWAP1 PUSH2 0x1215 SWAP2 SWAP1 PUSH2 0x15D1 JUMP JUMPDEST PUSH2 0x10A0 JUMPI PUSH1 0x40 MLOAD PUSH3 0x461BCD PUSH1 0xE5 SHL DUP2 MSTORE PUSH1 0x20 PUSH1 0x4 DUP3 ADD MSTORE PUSH1 0x2A PUSH1 0x24 DUP3 ADD MSTORE PUSH32 0x5361666545524332303A204552433230206F7065726174696F6E20646964206E PUSH1 0x44 DUP3 ADD MSTORE PUSH10 0x1BDD081CDD58D8D95959 PUSH1 0xB2 SHL PUSH1 0x64 DUP3 ADD MSTORE PUSH1 0x84 ADD PUSH2 0x426 JUMP JUMPDEST PUSH1 0x60 PUSH2 0x1283 DUP5 DUP5 PUSH1 0x0 DUP6 PUSH2 0x128B JUMP JUMPDEST SWAP5 SWAP4 POP POP POP POP JUMP JUMPDEST PUSH1 0x60 DUP3 SELFBALANCE LT ISZERO PUSH2 0x12EC JUMPI PUSH1 0x40 MLOAD PUSH3 0x461BCD PUSH1 0xE5 SHL DUP2 MSTORE PUSH1 0x20 PUSH1 0x4 DUP3 ADD MSTORE PUSH1 0x26 PUSH1 0x24 DUP3 ADD MSTORE PUSH32 0x416464726573733A20696E73756666696369656E742062616C616E636520666F PUSH1 0x44 DUP3 ADD MSTORE PUSH6 0x1C8818D85B1B PUSH1 0xD2 SHL PUSH1 0x64 DUP3 ADD MSTORE PUSH1 0x84 ADD PUSH2 0x426 JUMP JUMPDEST PUSH1 0x0 DUP1 DUP7 PUSH1 0x1 PUSH1 0x1 PUSH1 0xA0 SHL SUB AND DUP6 DUP8 PUSH1 0x40 MLOAD PUSH2 0x1308 SWAP2 SWAP1 PUSH2 0x1617 JUMP JUMPDEST PUSH1 0x0 PUSH1 0x40 MLOAD DUP1 DUP4 SUB DUP2 DUP6 DUP8 GAS CALL SWAP3 POP POP POP RETURNDATASIZE DUP1 PUSH1 0x0 DUP2 EQ PUSH2 0x1345 JUMPI PUSH1 0x40 MLOAD SWAP2 POP PUSH1 0x1F NOT PUSH1 0x3F RETURNDATASIZE ADD AND DUP3 ADD PUSH1 0x40 MSTORE RETURNDATASIZE DUP3 MSTORE RETURNDATASIZE PUSH1 0x0 PUSH1 0x20 DUP5 ADD RETURNDATACOPY PUSH2 0x134A JUMP JUMPDEST PUSH1 0x60 SWAP2 POP JUMPDEST POP SWAP2 POP SWAP2 POP PUSH2 0x135B DUP8 DUP4 DUP4 DUP8 PUSH2 0x1366 JUMP JUMPDEST SWAP8 SWAP7 POP POP POP POP POP POP POP JUMP JUMPDEST PUSH1 0x60 DUP4 ISZERO PUSH2 0x13D5 JUMPI DUP3 MLOAD PUSH1 0x0 SUB PUSH2 0x13CE JUMPI PUSH1 0x1 PUSH1 0x1 PUSH1 0xA0 SHL SUB DUP6 AND EXTCODESIZE PUSH2 0x13CE JUMPI PUSH1 0x40 MLOAD PUSH3 0x461BCD PUSH1 0xE5 SHL DUP2 MSTORE PUSH1 0x20 PUSH1 0x4 DUP3 ADD MSTORE PUSH1 0x1D PUSH1 0x24 DUP3 ADD MSTORE PUSH32 0x416464726573733A2063616C6C20746F206E6F6E2D636F6E7472616374000000 PUSH1 0x44 DUP3 ADD MSTORE PUSH1 0x64 ADD PUSH2 0x426 JUMP JUMPDEST POP DUP2 PUSH2 0x1283 JUMP JUMPDEST PUSH2 0x1283 DUP4 DUP4 DUP2 MLOAD ISZERO PUSH2 0x13EA JUMPI DUP2 MLOAD DUP1 DUP4 PUSH1 0x20 ADD REVERT JUMPDEST DUP1 PUSH1 0x40 MLOAD PUSH3 0x461BCD PUSH1 0xE5 SHL DUP2 MSTORE PUSH1 0x4 ADD PUSH2 0x426 SWAP2 SWAP1 PUSH2 0x1633 JUMP JUMPDEST PUSH1 0x0 PUSH1 0x20 DUP3 DUP5 SUB SLT ISZERO PUSH2 0x1416 JUMPI PUSH1 0x0 DUP1 REVERT JUMPDEST POP CALLDATALOAD SWAP2 SWAP1 POP JUMP JUMPDEST PUSH1 0x1 PUSH1 0x1 PUSH1 0xA0 SHL SUB DUP2 AND DUP2 EQ PUSH2 0x624 JUMPI PUSH1 0x0 DUP1 REVERT JUMPDEST PUSH1 0x0 PUSH1 0x20 DUP3 DUP5 SUB SLT ISZERO PUSH2 0x1444 JUMPI PUSH1 0x0 DUP1 REVERT JUMPDEST DUP2 CALLDATALOAD PUSH2 0x144F DUP2 PUSH2 0x141D JUMP JUMPDEST SWAP4 SWAP3 POP POP POP JUMP JUMPDEST DUP2 MLOAD PUSH1 0x1 PUSH1 0x1 PUSH1 0xA0 SHL SUB AND DUP2 MSTORE PUSH2 0x140 DUP2 ADD PUSH1 0x20 DUP4 ADD MLOAD PUSH2 0x1482 PUSH1 0x20 DUP5 ADD DUP3 PUSH1 0x1 PUSH1 0x1 PUSH1 0xA0 SHL SUB AND SWAP1 MSTORE JUMP JUMPDEST POP PUSH1 0x40 DUP4 ADD MLOAD PUSH1 0x40 DUP4 ADD MSTORE PUSH1 0x60 DUP4 ADD MLOAD PUSH1 0x60 DUP4 ADD MSTORE PUSH1 0x80 DUP4 ADD MLOAD PUSH2 0x14B1 PUSH1 0x80 DUP5 ADD DUP3 PUSH1 0x1 PUSH1 0x1 PUSH1 0xA0 SHL SUB AND SWAP1 MSTORE JUMP JUMPDEST POP PUSH1 0xA0 DUP4 ADD MLOAD PUSH2 0x14CC PUSH1 0xA0 DUP5 ADD DUP3 PUSH1 0x1 PUSH1 0x1 PUSH1 0xA0 SHL SUB AND SWAP1 MSTORE JUMP JUMPDEST POP PUSH1 0xC0 DUP4 ADD MLOAD PUSH1 0xC0 DUP4 ADD MSTORE PUSH1 0xE0 DUP4 ADD MLOAD PUSH1 0xE0 DUP4 ADD MSTORE PUSH2 0x100 DUP1 DUP5 ADD MLOAD PUSH2 0x14F5 DUP3 DUP6 ADD DUP3 ISZERO ISZERO SWAP1 MSTORE JUMP JUMPDEST POP POP PUSH2 0x120 SWAP3 DUP4 ADD MLOAD ISZERO ISZERO SWAP2 SWAP1 SWAP3 ADD MSTORE SWAP1 JUMP JUMPDEST PUSH1 0x0 DUP1 PUSH1 0x0 DUP1 PUSH1 0x0 DUP1 PUSH1 0xC0 DUP8 DUP10 SUB SLT ISZERO PUSH2 0x1521 JUMPI PUSH1 0x0 DUP1 REVERT JUMPDEST DUP7 CALLDATALOAD PUSH2 0x152C DUP2 PUSH2 0x141D JUMP JUMPDEST SWAP6 POP PUSH1 0x20 DUP8 ADD CALLDATALOAD PUSH2 0x153C DUP2 PUSH2 0x141D JUMP JUMPDEST SWAP6 SWAP9 SWAP6 SWAP8 POP POP POP POP PUSH1 0x40 DUP5 ADD CALLDATALOAD SWAP4 PUSH1 0x60 DUP2 ADD CALLDATALOAD SWAP4 PUSH1 0x80 DUP3 ADD CALLDATALOAD SWAP4 POP PUSH1 0xA0 SWAP1 SWAP2 ADD CALLDATALOAD SWAP2 POP JUMP JUMPDEST PUSH1 0x0 DUP1 PUSH1 0x0 PUSH1 0x60 DUP5 DUP7 SUB SLT ISZERO PUSH2 0x1576 JUMPI PUSH1 0x0 DUP1 REVERT JUMPDEST POP POP DUP2 CALLDATALOAD SWAP4 PUSH1 0x20 DUP4 ADD CALLDATALOAD SWAP4 POP PUSH1 0x40 SWAP1 SWAP3 ADD CALLDATALOAD SWAP2 SWAP1 POP JUMP JUMPDEST PUSH1 0x0 PUSH1 0x20 DUP3 DUP5 SUB SLT ISZERO PUSH2 0x159F JUMPI PUSH1 0x0 DUP1 REVERT JUMPDEST DUP2 MLOAD PUSH2 0x144F DUP2 PUSH2 0x141D JUMP JUMPDEST DUP2 DUP2 SUB DUP2 DUP2 GT ISZERO PUSH2 0x15CB JUMPI PUSH4 0x4E487B71 PUSH1 0xE0 SHL PUSH1 0x0 MSTORE PUSH1 0x11 PUSH1 0x4 MSTORE PUSH1 0x24 PUSH1 0x0 REVERT JUMPDEST SWAP3 SWAP2 POP POP JUMP JUMPDEST PUSH1 0x0 PUSH1 0x20 DUP3 DUP5 SUB SLT ISZERO PUSH2 0x15E3 JUMPI PUSH1 0x0 DUP1 REVERT JUMPDEST DUP2 MLOAD DUP1 ISZERO ISZERO DUP2 EQ PUSH2 0x144F JUMPI PUSH1 0x0 DUP1 REVERT JUMPDEST PUSH1 0x0 JUMPDEST DUP4 DUP2 LT ISZERO PUSH2 0x160E JUMPI DUP2 DUP2 ADD MLOAD DUP4 DUP3 ADD MSTORE PUSH1 0x20 ADD PUSH2 0x15F6 JUMP JUMPDEST POP POP PUSH1 0x0 SWAP2 ADD MSTORE JUMP JUMPDEST PUSH1 0x0 DUP3 MLOAD PUSH2 0x1629 DUP2 DUP5 PUSH1 0x20 DUP8 ADD PUSH2 0x15F3 JUMP JUMPDEST SWAP2 SWAP1 SWAP2 ADD SWAP3 SWAP2 POP POP JUMP JUMPDEST PUSH1 0x20 DUP2 MSTORE PUSH1 0x0 DUP3 MLOAD DUP1 PUSH1 0x20 DUP5 ADD MSTORE PUSH2 0x1652 DUP2 PUSH1 0x40 DUP6 ADD PUSH1 0x20 DUP8 ADD PUSH2 0x15F3 JUMP JUMPDEST PUSH1 0x1F ADD PUSH1 0x1F NOT AND SWAP2 SWAP1 SWAP2 ADD PUSH1 0x40 ADD SWAP3 SWAP2 POP POP JUMP INVALID LOG2 PUSH5 0x6970667358 0x22 SLT KECCAK256 AND 0xEF KECCAK256 0x23 0xEB MSTORE 0xAF CALLCODE STATICCALL DUP10 0xEC SLT SWAP14 PUSH18 0xF4434664C74AD951C026249B280BA920BBAA PUSH5 0x736F6C6343 STOP ADDMOD EQ STOP CALLER "},"gasEstimates":{"creation":{"codeDepositCost":"1157600","executionCost":"infinite","totalCost":"infinite"},"external":{"WETH()":"infinite","createOrder(address,address,uint256,uint256,uint256,bytes32)":"infinite","fulfillOrder(bytes32,uint256,bytes32)":"infinite","getOrder(bytes32)":"20331","isWorkerWallet(address)":"2537","orders(bytes32)":"19691","refundOrder(bytes32)":"infinite","registerWorkerWallet(address)":"26884","usedSecrets(bytes32)":"2483"}},"methodIdentifiers":{"WETH()":"ad5c4648","createOrder(address,address,uint256,uint256,uint256,bytes32)":"7535f2df","fulfillOrder(bytes32,uint256,bytes32)":"f6dccf2e","getOrder(bytes32)":"5778472a","isWorkerWallet(address)":"1f6d2eac","orders(bytes32)":"9c3f1e90","refundOrder(bytes32)":"116a1d9a","registerWorkerWallet(address)":"6808d587","usedSecrets(bytes32)":"a4516c48"}},"storageLayout":{"storage":[{"astId":10,"contract":"contracts/SwapManager.sol:SwapManager","label":"_status","offset":0,"slot":"0","type":"t_uint256"},{"astId":1546,"contract":"contracts/SwapManager.sol:SwapManager","label":"orders","offset":0,"slot":"1","type":"t_mapping(t_bytes32,t_struct(SwapOrder)2436_storage)"},{"astId":1550,"contract":"contracts/SwapManager.sol:SwapManager","label":"usedSecrets","offset":0,"slot":"2","type":"t_mapping(t_bytes32,t_bool)"},{"astId":1554,"contract":"contracts/SwapManager.sol:SwapManager","label":"isWorkerWallet","offset":0,"slot":"3","type":"t_mapping(t_address,t_bool)"}],"types":{"t_address":{"encoding":"inplace","label":"address","numberOfBytes":"20"},"t_bool":{"encoding":"inplace","label":"bool","numberOfBytes":"1"},"t_bytes32":{"encoding":"inplace","label":"bytes32","numberOfBytes":"32"},"t_mapping(t_address,t_bool)":{"encoding":"mapping","key":"t_address","label":"mapping(address => bool)","numberOfBytes":"32","value":"t_bool"},"t_mapping(t_bytes32,t_bool)":{"encoding":"mapping","key":"t_bytes32","label":"mapping(bytes32 => bool)","numberOfBytes":"32","value":"t_bool"},"t_mapping(t_bytes32,t_struct(SwapOrder)2436_storage)":{"encoding":"mapping","key":"t_bytes32","label":"mapping(bytes32 => struct ISwapManager.SwapOrder)","numberOfBytes":"32","value":"t_struct(SwapOrder)2436_storage"},"t_struct(SwapOrder)2436_storage":{"encoding":"inplace","label":"struct ISwapManager.SwapOrder","members":[{"astId":2417,"contract":"contracts/SwapManager.sol:SwapManager","label":"initiator","offset":0,"slot":"0","type":"t_address"},{"astId":2419,"contract":"contracts/SwapManager.sol:SwapManager","label":"resolver","offset":0,"slot":"1","type":"t_address"},{"astId":2421,"contract":"contracts/SwapManager.sol:SwapManager","label":"amountIn","offset":0,"slot":"2","type":"t_uint256"},{"astId":2423,"contract":"contracts/SwapManager.sol:SwapManager","label":"amountOutMin","offset":0,"slot":"3","type":"t_uint256"},{"astId":2425,"contract":"contracts/SwapManager.sol:SwapManager","label":"tokenIn","offset":0,"slot":"4","type":"t_address"},{"astId":2427,"contract":"contracts/SwapManager.sol:SwapManager","label":"tokenOut","offset":0,"slot":"5","type":"t_address"},{"astId":2429,"contract":"contracts/SwapManager.sol:SwapManager","label":"deadline","offset":0,"slot":"6","type":"t_uint256"},{"astId":2431,"contract":"contracts/SwapManager.sol:SwapManager","label":"secretHash","offset":0,"slot":"7","type":"t_bytes32"},{"astId":2433,"contract":"contracts/SwapManager.sol:SwapManager","label":"isFulfilled","offset":0,"slot":"8","type":"t_bool"},{"astId":2435,"contract":"contracts/SwapManager.sol:SwapManager","label":"isRefunded","offset":1,"slot":"8","type":"t_bool"}],"numberOfBytes":"288"},"t_uint256":{"encoding":"inplace","label":"uint256","numberOfBytes":"32"}}},"userdoc":{"kind":"user","methods":{"registerWorkerWallet(address)":{"notice":"Register a worker wallet that can be used to fulfill orders"}},"version":1}}}}