{
  "_format": "hh-sol-artifact-1",
  "contractName": "ERC20Mock",
  "sourceName": "contracts/mock/ERC20Mock.sol",
  "abi": [
    {
      "inputs": [
        {
          "internalType": "string",
          "name": "name",
          "type": "string"
        },
        {
          "internalType": "string",
          "name": "symbol",
          "type": "string"
        },
        {
          "internalType": "uint256",
          "name": "initialSupply",
          "type": "uint256"
        }
      ],
      "stateMutability": "nonpayable",
      "type": "constructor"
    },
    {
      "anonymous": false,
      "inputs": [
        {
          "indexed": true,
          "internalType": "address",
          "name": "owner",
          "type": "address"
        },
        {
          "indexed": true,
          "internalType": "address",
          "name": "spender",
          "type": "address"
        },
        {
          "indexed": false,
          "internalType": "uint256",
          "name": "value",
          "type": "uint256"
        }
      ],
      "name": "Approval",
      "type": "event"
    },
    {
      "anonymous": false,
      "inputs": [
        {
          "indexed": true,
          "internalType": "address",
          "name": "from",
          "type": "address"
        },
        {
          "indexed": true,
          "internalType": "address",
          "name": "to",
          "type": "address"
        },
        {
          "indexed": false,
          "internalType": "uint256",
          "name": "value",
          "type": "uint256"
        }
      ],
      "name": "Transfer",
      "type": "event"
    },
    {
      "inputs": [
        {
          "internalType": "address",
          "name": "owner",
          "type": "address"
        },
        {
          "internalType": "address",
          "name": "spender",
          "type": "address"
        }
      ],
      "name": "allowance",
      "outputs": [
        {
          "internalType": "uint256",
          "name": "",
          "type": "uint256"
        }
      ],
      "stateMutability": "view",
      "type": "function"
    },
    {
      "inputs": [
        {
          "internalType": "address",
          "name": "spender",
          "type": "address"
        },
        {
          "internalType": "uint256",
          "name": "amount",
          "type": "uint256"
        }
      ],
      "name": "approve",
      "outputs": [
        {
          "internalType": "bool",
          "name": "",
          "type": "bool"
        }
      ],
      "stateMutability": "nonpayable",
      "type": "function"
    },
    {
      "inputs": [
        {
          "internalType": "address",
          "name": "account",
          "type": "address"
        }
      ],
      "name": "balanceOf",
      "outputs": [
        {
          "internalType": "uint256",
          "name": "",
          "type": "uint256"
        }
      ],
      "stateMutability": "view",
      "type": "function"
    },
    {
      "inputs": [
        {
          "internalType": "address",
          "name": "from",
          "type": "address"
        },
        {
          "internalType": "uint256",
          "name": "amount",
          "type": "uint256"
        }
      ],
      "name": "burn",
      "outputs": [],
      "stateMutability": "nonpayable",
      "type": "function"
    },
    {
      "inputs": [],
      "name": "decimals",
      "outputs": [
        {
          "internalType": "uint8",
          "name": "",
          "type": "uint8"
        }
      ],
      "stateMutability": "view",
      "type": "function"
    },
    {
      "inputs": [
        {
          "internalType": "address",
          "name": "spender",
          "type": "address"
        },
        {
          "internalType": "uint256",
          "name": "subtractedValue",
          "type": "uint256"
        }
      ],
      "name": "decreaseAllowance",
      "outputs": [
        {
          "internalType": "bool",
          "name": "",
          "type": "bool"
        }
      ],
      "stateMutability": "nonpayable",
      "type": "function"
    },
    {
      "inputs": [
        {
          "internalType": "address",
          "name": "spender",
          "type": "address"
        },
        {
          "internalType": "uint256",
          "name": "addedValue",
          "type": "uint256"
        }
      ],
      "name": "increaseAllowance",
      "outputs": [
        {
          "internalType": "bool",
          "name": "",
          "type": "bool"
        }
      ],
      "stateMutability": "nonpayable",
      "type": "function"
    },
    {
      "inputs": [
        {
          "internalType": "address",
          "name": "to",
          "type": "address"
        },
        {
          "internalType": "uint256",
          "name": "amount",
          "type": "uint256"
        }
      ],
      "name": "mint",
      "outputs": [],
      "stateMutability": "nonpayable",
      "type": "function"
    },
    {
      "inputs": [],
      "name": "name",
      "outputs": [
        {
          "internalType": "string",
          "name": "",
          "type": "string"
        }
      ],
      "stateMutability": "view",
      "type": "function"
    },
    {
      "inputs": [],
      "name": "symbol",
      "outputs": [
        {
          "internalType": "string",
          "name": "",
          "type": "string"
        }
      ],
      "stateMutability": "view",
      "type": "function"
    },
    {
      "inputs": [],
      "name": "totalSupply",
      "outputs": [
        {
          "internalType": "uint256",
          "name": "",
          "type": "uint256"
        }
      ],
      "stateMutability": "view",
      "type": "function"
    },
    {
      "inputs": [
        {
          "internalType": "address",
          "name": "to",
          "type": "address"
        },
        {
          "internalType": "uint256",
          "name": "amount",
          "type": "uint256"
        }
      ],
      "name": "transfer",
      "outputs": [
        {
          "internalType": "bool",
          "name": "",
          "type": "bool"
        }
      ],
      "stateMutability": "nonpayable",
      "type": "function"
    },
    {
      "inputs": [
        {
          "internalType": "address",
          "name": "from",
          "type": "address"
        },
        {
          "internalType": "address",
          "name": "to",
          "type": "address"
        },
        {
          "internalType": "uint256",
          "name": "amount",
          "type": "uint256"
        }
      ],
      "name": "transferFrom",
      "outputs": [
        {
          "internalType": "bool",
          "name": "",
          "type": "bool"
        }
      ],
      "stateMutability": "nonpayable",
      "type": "function"
    }
  ],
  "bytecode": "0x60806040523480156200001157600080fd5b5060405162000ebb38038062000ebb83398101604081905262000034916200020e565b828260036200004483826200030f565b5060046200005382826200030f565b5050506200006833826200007e60201b60201c565b50506005805460ff191660121790555062000403565b6001600160a01b038216620000d95760405162461bcd60e51b815260206004820152601f60248201527f45524332303a206d696e7420746f20746865207a65726f206164647265737300604482015260640160405180910390fd5b8060026000828254620000ed9190620003db565b90915550506001600160a01b038216600081815260208181526040808320805486019055518481527fddf252ad1be2c89b69c2b068fc378daa952ba7f163c4a11628f55a4df523b3ef910160405180910390a35050565b505050565b634e487b7160e01b600052604160045260246000fd5b600082601f8301126200017157600080fd5b81516001600160401b03808211156200018e576200018e62000149565b604051601f8301601f19908116603f01168101908282118183101715620001b957620001b962000149565b81604052838152602092508683858801011115620001d657600080fd5b600091505b83821015620001fa5785820183015181830184015290820190620001db565b600093810190920192909252949350505050565b6000806000606084860312156200022457600080fd5b83516001600160401b03808211156200023c57600080fd5b6200024a878388016200015f565b945060208601519150808211156200026157600080fd5b5062000270868287016200015f565b925050604084015190509250925092565b600181811c908216806200029657607f821691505b602082108103620002b757634e487b7160e01b600052602260045260246000fd5b50919050565b601f8211156200014457600081815260208120601f850160051c81016020861015620002e65750805b601f850160051c820191505b818110156200030757828155600101620002f2565b505050505050565b81516001600160401b038111156200032b576200032b62000149565b62000343816200033c845462000281565b84620002bd565b602080601f8311600181146200037b5760008415620003625750858301515b600019600386901b1c1916600185901b17855562000307565b600085815260208120601f198616915b82811015620003ac578886015182559484019460019091019084016200038b565b5085821015620003cb5787850151600019600388901b60f8161c191681555b5050505050600190811b01905550565b80820180821115620003fd57634e487b7160e01b600052601160045260246000fd5b92915050565b610aa880620004136000396000f3fe608060405234801561001057600080fd5b50600436106100cf5760003560e01c806340c10f191161008c5780639dc29fac116100665780639dc29fac146101a8578063a457c2d7146101bb578063a9059cbb146101ce578063dd62ed3e146101e157600080fd5b806340c10f191461016257806370a082311461017757806395d89b41146101a057600080fd5b806306fdde03146100d4578063095ea7b3146100f257806318160ddd1461011557806323b872dd14610127578063313ce5671461013a578063395093511461014f575b600080fd5b6100dc6101f4565b6040516100e991906108f2565b60405180910390f35b61010561010036600461095c565b610286565b60405190151581526020016100e9565b6002545b6040519081526020016100e9565b610105610135366004610986565b6102a0565b60055460405160ff90911681526020016100e9565b61010561015d36600461095c565b6102c4565b61017561017036600461095c565b6102e6565b005b6101196101853660046109c2565b6001600160a01b031660009081526020819052604090205490565b6100dc6102f4565b6101756101b636600461095c565b610303565b6101056101c936600461095c565b61030d565b6101056101dc36600461095c565b61038d565b6101196101ef3660046109e4565b61039b565b60606003805461020390610a17565b80601f016020809104026020016040519081016040528092919081815260200182805461022f90610a17565b801561027c5780601f106102515761010080835404028352916020019161027c565b820191906000526020600020905b81548152906001019060200180831161025f57829003601f168201915b5050505050905090565b6000336102948185856103c6565b60019150505b92915050565b6000336102ae8582856104eb565b6102b9858585610565565b506001949350505050565b6000336102948185856102d7838361039b565b6102e19190610a51565b6103c6565b6102f08282610709565b5050565b60606004805461020390610a17565b6102f082826107c8565b6000338161031b828661039b565b9050838110156103805760405162461bcd60e51b815260206004820152602560248201527f45524332303a2064656372656173656420616c6c6f77616e63652062656c6f77604482015264207a65726f60d81b60648201526084015b60405180910390fd5b6102b982868684036103c6565b600033610294818585610565565b6001600160a01b03918216600090815260016020908152604080832093909416825291909152205490565b6001600160a01b0383166104285760405162461bcd60e51b8152602060048201526024808201527f45524332303a20617070726f76652066726f6d20746865207a65726f206164646044820152637265737360e01b6064820152608401610377565b6001600160a01b0382166104895760405162461bcd60e51b815260206004820152602260248201527f45524332303a20617070726f766520746f20746865207a65726f206164647265604482015261737360f01b6064820152608401610377565b6001600160a01b0383811660008181526001602090815260408083209487168084529482529182902085905590518481527f8c5be1e5ebec7d5bd14f71427d1e84f3dd0314c0f7b2291e5b200ac8c7c3b92591015b60405180910390a3505050565b60006104f7848461039b565b9050600019811461055f57818110156105525760405162461bcd60e51b815260206004820152601d60248201527f45524332303a20696e73756666696369656e7420616c6c6f77616e63650000006044820152606401610377565b61055f84848484036103c6565b50505050565b6001600160a01b0383166105c95760405162461bcd60e51b815260206004820152602560248201527f45524332303a207472616e736665722066726f6d20746865207a65726f206164604482015264647265737360d81b6064820152608401610377565b6001600160a01b03821661062b5760405162461bcd60e51b815260206004820152602360248201527f45524332303a207472616e7366657220746f20746865207a65726f206164647260448201526265737360e81b6064820152608401610377565b6001600160a01b038316600090815260208190526040902054818110156106a35760405162461bcd60e51b815260206004820152602660248201527f45524332303a207472616e7366657220616d6f756e7420657863656564732062604482015265616c616e636560d01b6064820152608401610377565b6001600160a01b03848116600081815260208181526040808320878703905593871680835291849020805487019055925185815290927fddf252ad1be2c89b69c2b068fc378daa952ba7f163c4a11628f55a4df523b3ef910160405180910390a361055f565b6001600160a01b03821661075f5760405162461bcd60e51b815260206004820152601f60248201527f45524332303a206d696e7420746f20746865207a65726f2061646472657373006044820152606401610377565b80600260008282546107719190610a51565b90915550506001600160a01b038216600081815260208181526040808320805486019055518481527fddf252ad1be2c89b69c2b068fc378daa952ba7f163c4a11628f55a4df523b3ef910160405180910390a35050565b6001600160a01b0382166108285760405162461bcd60e51b815260206004820152602160248201527f45524332303a206275726e2066726f6d20746865207a65726f206164647265736044820152607360f81b6064820152608401610377565b6001600160a01b0382166000908152602081905260409020548181101561089c5760405162461bcd60e51b815260206004820152602260248201527f45524332303a206275726e20616d6f756e7420657863656564732062616c616e604482015261636560f01b6064820152608401610377565b6001600160a01b0383166000818152602081815260408083208686039055600280548790039055518581529192917fddf252ad1be2c89b69c2b068fc378daa952ba7f163c4a11628f55a4df523b3ef91016104de565b600060208083528351808285015260005b8181101561091f57858101830151858201604001528201610903565b506000604082860101526040601f19601f8301168501019250505092915050565b80356001600160a01b038116811461095757600080fd5b919050565b6000806040838503121561096f57600080fd5b61097883610940565b946020939093013593505050565b60008060006060848603121561099b57600080fd5b6109a484610940565b92506109b260208501610940565b9150604084013590509250925092565b6000602082840312156109d457600080fd5b6109dd82610940565b9392505050565b600080604083850312156109f757600080fd5b610a0083610940565b9150610a0e60208401610940565b90509250929050565b600181811c90821680610a2b57607f821691505b602082108103610a4b57634e487b7160e01b600052602260045260246000fd5b50919050565b8082018082111561029a57634e487b7160e01b600052601160045260246000fdfea264697066735822122003897211a6f642f384ef92ef52f4dfd14563857713d1f9be439c66110d463ed364736f6c63430008140033",
  "linkReferences": {},
  "deployedLinkReferences": {}
}