{
  "_format": "hh-sol-artifact-1",
  "contractName": "SwapManager",
  "sourceName": "contracts/SwapManager.sol",
  "abi": [
    {
      "inputs": [
        {
          "internalType": "address",
          "name": "weth",
          "type": "address"
        }
      ],
      "stateMutability": "nonpayable",
      "type": "constructor"
    },
    {
      "anonymous": false,
      "inputs": [
        {
          "indexed": true,
          "internalType": "bytes32",
          "name": "orderId",
          "type": "bytes32"
        },
        {
          "indexed": true,
          "internalType": "address",
          "name": "initiator",
          "type": "address"
        },
        {
          "indexed": false,
          "internalType": "address",
          "name": "tokenIn",
          "type": "address"
        },
        {
          "indexed": false,
          "internalType": "address",
          "name": "tokenOut",
          "type": "address"
        },
        {
          "indexed": false,
          "internalType": "uint256",
          "name": "amountIn",
          "type": "uint256"
        },
        {
          "indexed": false,
          "internalType": "uint256",
          "name": "amountOutMin",
          "type": "uint256"
        },
        {
          "indexed": false,
          "internalType": "bytes32",
          "name": "secretHash",
          "type": "bytes32"
        }
      ],
      "name": "OrderCreated",
      "type": "event"
    },
    {
      "anonymous": false,
      "inputs": [
        {
          "indexed": true,
          "internalType": "bytes32",
          "name": "orderId",
          "type": "bytes32"
        },
        {
          "indexed": true,
          "internalType": "address",
          "name": "resolver",
          "type": "address"
        },
        {
          "indexed": false,
          "internalType": "bytes32",
          "name": "secret",
          "type": "bytes32"
        }
      ],
      "name": "OrderFulfilled",
      "type": "event"
    },
    {
      "anonymous": false,
      "inputs": [
        {
          "indexed": true,
          "internalType": "bytes32",
          "name": "orderId",
          "type": "bytes32"
        }
      ],
      "name": "OrderRefunded",
      "type": "event"
    },
    {
      "inputs": [],
      "name": "WETH",
      "outputs": [
        {
          "internalType": "address",
          "name": "",
          "type": "address"
        }
      ],
      "stateMutability": "view",
      "type": "function"
    },
    {
      "inputs": [
        {
          "internalType": "address",
          "name": "tokenIn",
          "type": "address"
        },
        {
          "internalType": "address",
          "name": "tokenOut",
          "type": "address"
        },
        {
          "internalType": "uint256",
          "name": "amountIn",
          "type": "uint256"
        },
        {
          "internalType": "uint256",
          "name": "amountOutMin",
          "type": "uint256"
        },
        {
          "internalType": "uint256",
          "name": "deadline",
          "type": "uint256"
        },
        {
          "internalType": "bytes32",
          "name": "secretHash",
          "type": "bytes32"
        }
      ],
      "name": "createOrder",
      "outputs": [
        {
          "internalType": "bytes32",
          "name": "",
          "type": "bytes32"
        }
      ],
      "stateMutability": "payable",
      "type": "function"
    },
    {
      "inputs": [
        {
          "internalType": "bytes32",
          "name": "orderId",
          "type": "bytes32"
        },
        {
          "internalType": "uint256",
          "name": "amountOut",
          "type": "uint256"
        },
        {
          "internalType": "bytes32",
          "name": "secret",
          "type": "bytes32"
        }
      ],
      "name": "fulfillOrder",
      "outputs": [],
      "stateMutability": "payable",
      "type": "function"
    },
    {
      "inputs": [
        {
          "internalType": "bytes32",
          "name": "orderId",
          "type": "bytes32"
        }
      ],
      "name": "getOrder",
      "outputs": [
        {
          "internalType": "address",
          "name": "initiator",
          "type": "address"
        },
        {
          "internalType": "address",
          "name": "resolver",
          "type": "address"
        },
        {
          "internalType": "uint256",
          "name": "amountIn",
          "type": "uint256"
        },
        {
          "internalType": "uint256",
          "name": "amountOutMin",
          "type": "uint256"
        },
        {
          "internalType": "address",
          "name": "tokenIn",
          "type": "address"
        },
        {
          "internalType": "address",
          "name": "tokenOut",
          "type": "address"
        },
        {
          "internalType": "uint256",
          "name": "deadline",
          "type": "uint256"
        },
        {
          "internalType": "bytes32",
          "name": "secretHash",
          "type": "bytes32"
        },
        {
          "internalType": "bool",
          "name": "isFulfilled",
          "type": "bool"
        },
        {
          "internalType": "bool",
          "name": "isRefunded",
          "type": "bool"
        }
      ],
      "stateMutability": "view",
      "type": "function"
    },
    {
      "inputs": [
        {
          "internalType": "address",
          "name": "",
          "type": "address"
        }
      ],
      "name": "isWorkerWallet",
      "outputs": [
        {
          "internalType": "bool",
          "name": "",
          "type": "bool"
        }
      ],
      "stateMutability": "view",
      "type": "function"
    },
    {
      "inputs": [
        {
          "internalType": "bytes32",
          "name": "",
          "type": "bytes32"
        }
      ],
      "name": "orders",
      "outputs": [
        {
          "internalType": "address",
          "name": "initiator",
          "type": "address"
        },
        {
          "internalType": "address",
          "name": "resolver",
          "type": "address"
        },
        {
          "internalType": "uint256",
          "name": "amountIn",
          "type": "uint256"
        },
        {
          "internalType": "uint256",
          "name": "amountOutMin",
          "type": "uint256"
        },
        {
          "internalType": "address",
          "name": "tokenIn",
          "type": "address"
        },
        {
          "internalType": "address",
          "name": "tokenOut",
          "type": "address"
        },
        {
          "internalType": "uint256",
          "name": "deadline",
          "type": "uint256"
        },
        {
          "internalType": "bytes32",
          "name": "secretHash",
          "type": "bytes32"
        },
        {
          "internalType": "bool",
          "name": "isFulfilled",
          "type": "bool"
        },
        {
          "internalType": "bool",
          "name": "isRefunded",
          "type": "bool"
        }
      ],
      "stateMutability": "view",
      "type": "function"
    },
    {
      "inputs": [
        {
          "internalType": "bytes32",
          "name": "orderId",
          "type": "bytes32"
        }
      ],
      "name": "refundOrder",
      "outputs": [],
      "stateMutability": "nonpayable",
      "type": "function"
    },
    {
      "inputs": [
        {
          "internalType": "address",
          "name": "workerWallet",
          "type": "address"
        }
      ],
      "name": "registerWorkerWallet",
      "outputs": [],
      "stateMutability": "nonpayable",
      "type": "function"
    },
    {
      "inputs": [
        {
          "internalType": "bytes32",
          "name": "",
          "type": "bytes32"
        }
      ],
      "name": "usedSecrets",
      "outputs": [
        {
          "internalType": "bool",
          "name": "",
          "type": "bool"
        }
      ],
      "stateMutability": "view",
      "type": "function"
    },
    {
      "stateMutability": "payable",
      "type": "receive"
    }
  ],
  "bytecode": "0x60a060405234801561001057600080fd5b5060405161168938038061168983398101604081905261002f91610045565b60016000556001600160a01b0316608052610075565b60006020828403121561005757600080fd5b81516001600160a01b038116811461006e57600080fd5b9392505050565b6080516115f961009060003960006102ea01526115f96000f3fe60806040526004361061008a5760003560e01c80637535f2df116100595780637535f2df146102045780639c3f1e9014610225578063a4516c48146102a8578063ad5c4648146102d8578063f6dccf2e1461032457600080fd5b8063116a1d9a146100965780631f6d2eac146100b85780635778472a146100fd5780636808d587146101e457600080fd5b3661009157005b600080fd5b3480156100a257600080fd5b506100b66100b1366004611413565b610337565b005b3480156100c457600080fd5b506100e86100d3366004611441565b60036020526000908152604090205460ff1681565b60405190151581526020015b60405180910390f35b34801561010957600080fd5b50610183610118366004611413565b60009081526001602081905260409091208054918101546002820154600383015460048401546005850154600686015460078701546008909701546001600160a01b0398891699968916989597949693861695909216939092909160ff808216926101009092041690565b604080516001600160a01b039b8c168152998b1660208b015289019790975260608801959095529287166080870152951660a085015260c084019490945260e0830193909352911515610100820152901515610120820152610140016100f4565b3480156101f057600080fd5b506100b66101ff366004611441565b610593565b610217610212366004611465565b6106c3565b6040519081526020016100f4565b34801561023157600080fd5b50610183610240366004611413565b60016020819052600091825260409091208054918101546002820154600383015460048401546005850154600686015460078701546008909701546001600160a01b039889169896871697959694959385169490921692909160ff808216916101009004168a565b3480156102b457600080fd5b506100e86102c3366004611413565b60026020526000908152604090205460ff1681565b3480156102e457600080fd5b5061030c7f000000000000000000000000000000000000000000000000000000000000000081565b6040516001600160a01b0390911681526020016100f4565b6100b66103323660046114be565b610ae7565b61033f6110b4565b600081815260016020526040902080546001600160a01b031661039b5760405162461bcd60e51b815260206004820152600f60248201526e13dc99195c881b9bdd08199bdd5b99608a1b60448201526064015b60405180910390fd5b600881015460ff16156103ea5760405162461bcd60e51b815260206004820152601760248201527613dc99195c88185b1c9958591e48199d5b199a5b1b1959604a1b6044820152606401610392565b6008810154610100900460ff16156104375760405162461bcd60e51b815260206004820152601060248201526f105b1c9958591e481c99599d5b99195960821b6044820152606401610392565b806006015442116104815760405162461bcd60e51b8152602060048201526014602482015273111958591b1a5b99481b9bdd081c995858da195960621b6044820152606401610392565b80546001600160a01b031633146104d05760405162461bcd60e51b81526020600482015260136024820152722737ba1037b93232b91034b734ba34b0ba37b960691b6044820152606401610392565b60088101805461ff00191661010017905560048101546001600160a01b031661053657805460028201546040516001600160a01b039092169181156108fc0291906000818181858888f19350505050158015610530573d6000803e3d6000fd5b5061055a565b80546002820154600483015461055a926001600160a01b039182169291169061110d565b60405182907fa60671d8537ed193e567f86ddf28cf35dc67073b5ad80a2d41359cfa78db0a1e90600090a2506105906001600055565b50565b6001600160a01b03811660009081526003602052604090205460ff16156105f15760405162461bcd60e51b8152602060048201526012602482015271105b1c9958591e481c9959da5cdd195c995960721b6044820152606401610392565b336001600160a01b0316816001600160a01b0316638da5cb5b6040518163ffffffff1660e01b8152600401602060405180830381865afa158015610639573d6000803e3d6000fd5b505050506040513d601f19601f8201168201806040525081019061065d91906114ea565b6001600160a01b03161461069f5760405162461bcd60e51b81526020600482015260096024820152682737ba1037bbb732b960b91b6044820152606401610392565b6001600160a01b03166000908152600360205260409020805460ff19166001179055565b60006106cd6110b4565b6000851161070b5760405162461bcd60e51b815260206004820152600b60248201526a16995c9bc8185b5bdd5b9d60aa1b6044820152606401610392565b42831161074d5760405162461bcd60e51b815260206004820152601060248201526f496e76616c696420646561646c696e6560801b6044820152606401610392565b816107905760405162461bcd60e51b8152602060048201526013602482015272092dcecc2d8d2c840e6cac6e4cae840d0c2e6d606b1b6044820152606401610392565b6040516bffffffffffffffffffffffff1933606090811b821660208401524260348401526054830188905289811b8216607484015288901b166088820152609c810183905260009060bc0160408051601f198184030181529181528151602092830120600081815260019093529120549091506001600160a01b0316156108485760405162461bcd60e51b815260206004820152600c60248201526b4f726465722065786973747360a01b6044820152606401610392565b6001600160a01b0388166108a15785341461089c5760405162461bcd60e51b8152602060048201526014602482015273125b98dbdc9c9958dd0811551208185b5bdd5b9d60621b6044820152606401610392565b6108b6565b6108b66001600160a01b038916333089611170565b604051806101400160405280336001600160a01b0316815260200160006001600160a01b03168152602001878152602001868152602001896001600160a01b03168152602001886001600160a01b03168152602001858152602001848152602001600015158152602001600015158152506001600083815260200190815260200160002060008201518160000160006101000a8154816001600160a01b0302191690836001600160a01b0316021790555060208201518160010160006101000a8154816001600160a01b0302191690836001600160a01b03160217905550604082015181600201556060820151816003015560808201518160040160006101000a8154816001600160a01b0302191690836001600160a01b0316021790555060a08201518160050160006101000a8154816001600160a01b0302191690836001600160a01b0316021790555060c0820151816006015560e082015181600701556101008201518160080160006101000a81548160ff0219169083151502179055506101208201518160080160016101000a81548160ff021916908315150217905550905050336001600160a01b0316817f958da44420b864737ad53ea0aa959279a3e21574047c9737df230d1f350577a08a8a8a8a89604051610ac99594939291906001600160a01b03958616815293909416602084015260408301919091526060820152608081019190915260a00190565b60405180910390a39050610add6001600055565b9695505050505050565b610aef6110b4565b600083815260016020526040902080546001600160a01b0316610b465760405162461bcd60e51b815260206004820152600f60248201526e13dc99195c881b9bdd08199bdd5b99608a1b6044820152606401610392565b600881015460ff1615610b955760405162461bcd60e51b815260206004820152601760248201527613dc99195c88185b1c9958591e48199d5b199a5b1b1959604a1b6044820152606401610392565b6008810154610100900460ff1615610be45760405162461bcd60e51b815260206004820152601260248201527113dc99195c881dd85cc81c99599d5b99195960721b6044820152606401610392565b8060060154421115610c285760405162461bcd60e51b815260206004820152600d60248201526c13dc99195c88195e1c1a5c9959609a1b6044820152606401610392565b60078101546040805160208101859052016040516020818303038152906040528051906020012014610c8d5760405162461bcd60e51b815260206004820152600e60248201526d125b9d985b1a59081cd958dc995d60921b6044820152606401610392565b60008281526002602052604090205460ff1615610ce25760405162461bcd60e51b815260206004820152601360248201527214d958dc995d08185b1c9958591e481d5cd959606a1b6044820152606401610392565b8060030154831015610d365760405162461bcd60e51b815260206004820152601a60248201527f496e73756666696369656e74206f757470757420616d6f756e740000000000006044820152606401610392565b3360009081526003602052604090205460ff1615610e17576000339050326001600160a01b0316816001600160a01b0316638da5cb5b6040518163ffffffff1660e01b8152600401602060405180830381865afa158015610d9b573d6000803e3d6000fd5b505050506040513d601f19601f82011682018060405250810190610dbf91906114ea565b6001600160a01b031614610e155760405162461bcd60e51b815260206004820152601760248201527f4e6f7420776f726b65722077616c6c6574206f776e65720000000000000000006044820152606401610392565b505b60088101805460ff19908116600190811790925582820180546001600160a01b0319163317905560008481526002602052604090208054909116909117905560048101546001600160a01b0316610f53578060020154471015610ebc5760405162461bcd60e51b815260206004820152601860248201527f496e73756666696369656e74204554482062616c616e636500000000000000006044820152606401610392565b600281015460405160009133918381818185875af1925050503d8060008114610f01576040519150601f19603f3d011682016040523d82523d6000602084013e610f06565b606091505b5050905080610f4d5760405162461bcd60e51b8152602060048201526013602482015272115512081d1c985b9cd9995c8819985a5b1959606a1b6044820152606401610392565b50610f74565b60028101546004820154610f74916001600160a01b0390911690339061110d565b60058101546001600160a01b031661104d5782341015610fce5760405162461bcd60e51b8152602060048201526015602482015274125b9cdd59999a58da595b9d08115512081cd95b9d605a1b6044820152606401610392565b8234111561100e57336108fc610fe48534611507565b6040518115909202916000818181858888f1935050505015801561100c573d6000803e3d6000fd5b505b80546040516001600160a01b039091169084156108fc029085906000818181858888f19350505050158015611047573d6000803e3d6000fd5b5061106d565b8054600582015461106d916001600160a01b039182169133911686611170565b604051828152339085907fc0dec645483244c37030b06224e60b121eadd7ee71a4ce18862c979d5584042b9060200160405180910390a3506110af6001600055565b505050565b6002600054036111065760405162461bcd60e51b815260206004820152601f60248201527f5265656e7472616e637947756172643a207265656e7472616e742063616c6c006044820152606401610392565b6002600055565b6040516001600160a01b0383166024820152604481018290526110af90849063a9059cbb60e01b906064015b60408051601f198184030181529190526020810180516001600160e01b03166001600160e01b0319909316929092179091526111ae565b6040516001600160a01b03808516602483015283166044820152606481018290526111a89085906323b872dd60e01b90608401611139565b50505050565b6000611203826040518060400160405280602081526020017f5361666545524332303a206c6f772d6c6576656c2063616c6c206661696c6564815250856001600160a01b03166112839092919063ffffffff16565b9050805160001480611224575080806020019051810190611224919061152e565b6110af5760405162461bcd60e51b815260206004820152602a60248201527f5361666545524332303a204552433230206f7065726174696f6e20646964206e6044820152691bdd081cdd58d8d9595960b21b6064820152608401610392565b6060611292848460008561129a565b949350505050565b6060824710156112fb5760405162461bcd60e51b815260206004820152602660248201527f416464726573733a20696e73756666696369656e742062616c616e636520666f6044820152651c8818d85b1b60d21b6064820152608401610392565b600080866001600160a01b031685876040516113179190611574565b60006040518083038185875af1925050503d8060008114611354576040519150601f19603f3d011682016040523d82523d6000602084013e611359565b606091505b509150915061136a87838387611375565b979650505050505050565b606083156113e45782516000036113dd576001600160a01b0385163b6113dd5760405162461bcd60e51b815260206004820152601d60248201527f416464726573733a2063616c6c20746f206e6f6e2d636f6e74726163740000006044820152606401610392565b5081611292565b61129283838151156113f95781518083602001fd5b8060405162461bcd60e51b81526004016103929190611590565b60006020828403121561142557600080fd5b5035919050565b6001600160a01b038116811461059057600080fd5b60006020828403121561145357600080fd5b813561145e8161142c565b9392505050565b60008060008060008060c0878903121561147e57600080fd5b86356114898161142c565b955060208701356114998161142c565b95989597505050506040840135936060810135936080820135935060a0909101359150565b6000806000606084860312156114d357600080fd5b505081359360208301359350604090920135919050565b6000602082840312156114fc57600080fd5b815161145e8161142c565b8181038181111561152857634e487b7160e01b600052601160045260246000fd5b92915050565b60006020828403121561154057600080fd5b8151801515811461145e57600080fd5b60005b8381101561156b578181015183820152602001611553565b50506000910152565b60008251611586818460208701611550565b9190910192915050565b60208152600082518060208401526115af816040850160208701611550565b601f01601f1916919091016040019291505056fea26469706673582212204af09ab72a23132d7df75d9a387f1551aaa7382341df560f0e797640c6f2ab1d64736f6c63430008140033",
  "linkReferences": {},
  "deployedLinkReferences": {}
}