{
  "_format": "hh-sol-artifact-1",
  "contractName": "WorkerWallet",
  "sourceName": "contracts/WorkerWallet.sol",
  "abi": [
    {
      "inputs": [
        {
          "internalType": "address",
          "name": "_owner",
          "type": "address"
        },
        {
          "internalType": "address",
          "name": "_swapManager",
          "type": "address"
        }
      ],
      "stateMutability": "nonpayable",
      "type": "constructor"
    },
    {
      "anonymous": false,
      "inputs": [
        {
          "indexed": true,
          "internalType": "address",
          "name": "target",
          "type": "address"
        },
        {
          "indexed": false,
          "internalType": "uint256",
          "name": "value",
          "type": "uint256"
        },
        {
          "indexed": false,
          "internalType": "bytes",
          "name": "data",
          "type": "bytes"
        },
        {
          "indexed": false,
          "internalType": "bool",
          "name": "success",
          "type": "bool"
        }
      ],
      "name": "Executed",
      "type": "event"
    },
    {
      "anonymous": false,
      "inputs": [
        {
          "indexed": false,
          "internalType": "address",
          "name": "token",
          "type": "address"
        },
        {
          "indexed": false,
          "internalType": "uint256",
          "name": "amount",
          "type": "uint256"
        },
        {
          "indexed": false,
          "internalType": "address",
          "name": "to",
          "type": "address"
        }
      ],
      "name": "Withdrawn",
      "type": "event"
    },
    {
      "inputs": [
        {
          "internalType": "address",
          "name": "target",
          "type": "address"
        },
        {
          "internalType": "uint256",
          "name": "value",
          "type": "uint256"
        },
        {
          "internalType": "bytes",
          "name": "data",
          "type": "bytes"
        }
      ],
      "name": "execute",
      "outputs": [
        {
          "internalType": "bool",
          "name": "success",
          "type": "bool"
        },
        {
          "internalType": "bytes",
          "name": "result",
          "type": "bytes"
        }
      ],
      "stateMutability": "nonpayable",
      "type": "function"
    },
    {
      "inputs": [],
      "name": "owner",
      "outputs": [
        {
          "internalType": "address",
          "name": "",
          "type": "address"
        }
      ],
      "stateMutability": "view",
      "type": "function"
    },
    {
      "inputs": [],
      "name": "swapManager",
      "outputs": [
        {
          "internalType": "address",
          "name": "",
          "type": "address"
        }
      ],
      "stateMutability": "view",
      "type": "function"
    },
    {
      "inputs": [
        {
          "internalType": "address",
          "name": "token",
          "type": "address"
        },
        {
          "internalType": "uint256",
          "name": "amount",
          "type": "uint256"
        },
        {
          "internalType": "address",
          "name": "to",
          "type": "address"
        }
      ],
      "name": "withdraw",
      "outputs": [],
      "stateMutability": "nonpayable",
      "type": "function"
    },
    {
      "stateMutability": "payable",
      "type": "receive"
    }
  ],
  "bytecode": "0x608060405234801561001057600080fd5b50604051610a59380380610a5983398101604081905261002f9161014c565b6001600160a01b0382166100965760405162461bcd60e51b815260206004820152602360248201527f576f726b657257616c6c65743a206f776e6572206973207a65726f206164647260448201526265737360e81b60648201526084015b60405180910390fd5b6001600160a01b0381166100ff5760405162461bcd60e51b815260206004820152602a60248201527f576f726b657257616c6c65743a2073776170206d616e61676572206973207a65604482015269726f206164647265737360b01b606482015260840161008d565b600080546001600160a01b039384166001600160a01b0319918216179091556001805492909316911617905561017f565b80516001600160a01b038116811461014757600080fd5b919050565b6000806040838503121561015f57600080fd5b61016883610130565b915061017660208401610130565b90509250929050565b6108cb8061018e6000396000f3fe6080604052600436106100435760003560e01c806369328dec1461004f578063709d039d146100715780638da5cb5b146100ae578063b61d27f6146100ce57600080fd5b3661004a57005b600080fd5b34801561005b57600080fd5b5061006f61006a36600461067a565b6100fc565b005b34801561007d57600080fd5b50600154610091906001600160a01b031681565b6040516001600160a01b0390911681526020015b60405180910390f35b3480156100ba57600080fd5b50600054610091906001600160a01b031681565b3480156100da57600080fd5b506100ee6100e93660046106b6565b6102bf565b6040516100a592919061078d565b6000546001600160a01b0316331461012f5760405162461bcd60e51b8152600401610126906107a8565b60405180910390fd5b6001600160a01b03811661019b5760405162461bcd60e51b815260206004820152602d60248201527f576f726b657257616c6c65743a2063616e6e6f7420776974686472617720746f60448201526c207a65726f206164647265737360981b6064820152608401610126565b6001600160a01b03831661025c576000816001600160a01b03168360405160006040518083038185875af1925050503d80600081146101f6576040519150601f19603f3d011682016040523d82523d6000602084013e6101fb565b606091505b50509050806102565760405162461bcd60e51b815260206004820152602160248201527f576f726b657257616c6c65743a20455448207472616e73666572206661696c656044820152601960fa1b6064820152608401610126565b50610270565b6102706001600160a01b03841682846103a2565b604080516001600160a01b0385811682526020820185905283168183015290517fcbcdbdf10631a43cc99c80acace8232649421c3f4f73919f16013d47c83a687a9181900360600190a1505050565b600080546060906001600160a01b031633146102ed5760405162461bcd60e51b8152600401610126906107a8565b856001600160a01b03168585856040516103089291906107ed565b60006040518083038185875af1925050503d8060008114610345576040519150601f19603f3d011682016040523d82523d6000602084013e61034a565b606091505b5060405191935091506001600160a01b038716907f4232d48319210b7bc959a61fd7785051da1497df2a1400e3340f42a8a6efd541906103919088908890889088906107fd565b60405180910390a294509492505050565b604080516001600160a01b038416602482015260448082018490528251808303909101815260649091019091526020810180516001600160e01b031663a9059cbb60e01b1790526103f49084906103f9565b505050565b600061044e826040518060400160405280602081526020017f5361666545524332303a206c6f772d6c6576656c2063616c6c206661696c6564815250856001600160a01b03166104ce9092919063ffffffff16565b905080516000148061046f57508080602001905181019061046f919061083d565b6103f45760405162461bcd60e51b815260206004820152602a60248201527f5361666545524332303a204552433230206f7065726174696f6e20646964206e6044820152691bdd081cdd58d8d9595960b21b6064820152608401610126565b60606104dd84846000856104e5565b949350505050565b6060824710156105465760405162461bcd60e51b815260206004820152602660248201527f416464726573733a20696e73756666696369656e742062616c616e636520666f6044820152651c8818d85b1b60d21b6064820152608401610126565b600080866001600160a01b031685876040516105629190610866565b60006040518083038185875af1925050503d806000811461059f576040519150601f19603f3d011682016040523d82523d6000602084013e6105a4565b606091505b50915091506105b5878383876105c0565b979650505050505050565b6060831561062f578251600003610628576001600160a01b0385163b6106285760405162461bcd60e51b815260206004820152601d60248201527f416464726573733a2063616c6c20746f206e6f6e2d636f6e74726163740000006044820152606401610126565b50816104dd565b6104dd83838151156106445781518083602001fd5b8060405162461bcd60e51b81526004016101269190610882565b80356001600160a01b038116811461067557600080fd5b919050565b60008060006060848603121561068f57600080fd5b6106988461065e565b9250602084013591506106ad6040850161065e565b90509250925092565b600080600080606085870312156106cc57600080fd5b6106d58561065e565b935060208501359250604085013567ffffffffffffffff808211156106f957600080fd5b818701915087601f83011261070d57600080fd5b81358181111561071c57600080fd5b88602082850101111561072e57600080fd5b95989497505060200194505050565b60005b83811015610758578181015183820152602001610740565b50506000910152565b6000815180845261077981602086016020860161073d565b601f01601f19169290920160200192915050565b82151581526040602082015260006104dd6040830184610761565b60208082526025908201527f576f726b657257616c6c65743a2063616c6c6572206973206e6f74207468652060408201526437bbb732b960d91b606082015260800190565b8183823760009101908152919050565b848152606060208201528260608201528284608083013760008184016080908101919091529115156040820152601f909201601f19169091010192915050565b60006020828403121561084f57600080fd5b8151801515811461085f57600080fd5b9392505050565b6000825161087881846020870161073d565b9190910192915050565b60208152600061085f602083018461076156fea2646970667358221220142139d47c8f89e7b9e607d51232e069a10870614ce5f565e2a6107b29954b6964736f6c63430008140033",
  "linkReferences": {},
  "deployedLinkReferences": {}
}