{
  "_format": "hh-sol-artifact-1",
  "contractName": "MockRelayer",
  "sourceName": "contracts/mock/MockRelayer.sol",
  "abi": [
    {
      "inputs": [
        {
          "internalType": "address",
          "name": "_swapManager",
          "type": "address"
        }
      ],
      "stateMutability": "nonpayable",
      "type": "constructor"
    },
    {
      "anonymous": false,
      "inputs": [
        {
          "indexed": true,
          "internalType": "bytes32",
          "name": "orderId",
          "type": "bytes32"
        },
        {
          "indexed": true,
          "internalType": "address",
          "name": "resolver",
          "type": "address"
        },
        {
          "indexed": false,
          "internalType": "uint256",
          "name": "amountOut",
          "type": "uint256"
        },
        {
          "indexed": false,
          "internalType": "bytes32",
          "name": "secret",
          "type": "bytes32"
        }
      ],
      "name": "OrderFulfilled",
      "type": "event"
    },
    {
      "anonymous": false,
      "inputs": [
        {
          "indexed": true,
          "internalType": "bytes32",
          "name": "orderId",
          "type": "bytes32"
        },
        {
          "indexed": true,
          "internalType": "address",
          "name": "initiator",
          "type": "address"
        },
        {
          "indexed": false,
          "internalType": "address",
          "name": "tokenIn",
          "type": "address"
        },
        {
          "indexed": false,
          "internalType": "address",
          "name": "tokenOut",
          "type": "address"
        },
        {
          "indexed": false,
          "internalType": "uint256",
          "name": "amountIn",
          "type": "uint256"
        },
        {
          "indexed": false,
          "internalType": "uint256",
          "name": "amountOutMin",
          "type": "uint256"
        },
        {
          "indexed": false,
          "internalType": "bytes32",
          "name": "secretHash",
          "type": "bytes32"
        }
      ],
      "name": "OrderReceived",
      "type": "event"
    },
    {
      "inputs": [
        {
          "internalType": "bytes32",
          "name": "orderId",
          "type": "bytes32"
        },
        {
          "internalType": "uint256",
          "name": "amountOut",
          "type": "uint256"
        },
        {
          "internalType": "bytes32",
          "name": "secret",
          "type": "bytes32"
        }
      ],
      "name": "fulfillOrder",
      "outputs": [],
      "stateMutability": "payable",
      "type": "function"
    },
    {
      "inputs": [
        {
          "internalType": "address",
          "name": "tokenIn",
          "type": "address"
        },
        {
          "internalType": "address",
          "name": "tokenOut",
          "type": "address"
        },
        {
          "internalType": "uint256",
          "name": "amountIn",
          "type": "uint256"
        },
        {
          "internalType": "uint256",
          "name": "amountOutMin",
          "type": "uint256"
        },
        {
          "internalType": "uint256",
          "name": "deadline",
          "type": "uint256"
        },
        {
          "internalType": "bytes32",
          "name": "secretHash",
          "type": "bytes32"
        }
      ],
      "name": "receiveOrder",
      "outputs": [
        {
          "internalType": "bytes32",
          "name": "",
          "type": "bytes32"
        }
      ],
      "stateMutability": "payable",
      "type": "function"
    },
    {
      "inputs": [],
      "name": "swapManager",
      "outputs": [
        {
          "internalType": "contract ISwapManager",
          "name": "",
          "type": "address"
        }
      ],
      "stateMutability": "view",
      "type": "function"
    }
  ],
  "bytecode": "0x608060405234801561001057600080fd5b506040516105d63803806105d683398101604081905261002f91610054565b600080546001600160a01b0319166001600160a01b0392909216919091179055610084565b60006020828403121561006657600080fd5b81516001600160a01b038116811461007d57600080fd5b9392505050565b610543806100936000396000f3fe6080604052600436106100345760003560e01c8063709d039d14610039578063eb9bd09914610076578063f6dccf2e14610097575b600080fd5b34801561004557600080fd5b50600054610059906001600160a01b031681565b6040516001600160a01b0390911681526020015b60405180910390f35b61008961008436600461041b565b6100ac565b60405190815260200161006d565b6100aa6100a5366004610470565b6102cc565b005b60006001600160a01b038716156101ae576040516323b872dd60e01b8152336004820152306024820152604481018690526001600160a01b038816906323b872dd906064016020604051808303816000875af1158015610110573d6000803e3d6000fd5b505050506040513d601f19601f82011682018060405250810190610134919061049c565b5060005460405163095ea7b360e01b81526001600160a01b039182166004820152602481018790529088169063095ea7b3906044016020604051808303816000875af1158015610188573d6000803e3d6000fd5b505050506040513d601f19601f820116820180604052508101906101ac919061049c565b505b600080546001600160a01b0390811690637535f2df908a16156101d25760006101d4565b875b6040516001600160e01b031960e084901b1681526001600160a01b03808d1660048301528b166024820152604481018a9052606481018990526084810188905260a4810187905260c40160206040518083038185885af115801561023c573d6000803e3d6000fd5b50505050506040513d601f19601f8201168201806040525081019061026191906104c5565b604080516001600160a01b038b811682528a1660208201529081018890526060810187905260808101859052909150339082907f49f29b9cfb3bb0783c26f435fe9808e8b7fd6958ebb9363de51f5b697c712c749060a00160405180910390a3979650505050505050565b600080546040516024810186905260448101859052606481018490526001600160a01b0390911690349060840160408051601f198184030181529181526020820180516001600160e01b0316637b6e679760e11b1790525161032e91906104de565b60006040518083038185875af1925050503d806000811461036b576040519150601f19603f3d011682016040523d82523d6000602084013e610370565b606091505b50509050806103bc5760405162461bcd60e51b8152602060048201526014602482015273119d5b199a5b1b081bdc99195c8819985a5b195960621b604482015260640160405180910390fd5b6040805184815260208101849052339186917fdafd13066d5a7c6b0591d8c19f57c75c45b8fa038153891c78a582507cbd18c7910160405180910390a350505050565b80356001600160a01b038116811461041657600080fd5b919050565b60008060008060008060c0878903121561043457600080fd5b61043d876103ff565b955061044b602088016103ff565b95989597505050506040840135936060810135936080820135935060a0909101359150565b60008060006060848603121561048557600080fd5b505081359360208301359350604090920135919050565b6000602082840312156104ae57600080fd5b815180151581146104be57600080fd5b9392505050565b6000602082840312156104d757600080fd5b5051919050565b6000825160005b818110156104ff57602081860181015185830152016104e5565b50600092019182525091905056fea264697066735822122025c98ca6385de334f04371777aa164b6764e1e7f7764d7efd52b99cc65b1a75e64736f6c63430008140033",
  "linkReferences": {},
  "deployedLinkReferences": {}
}